:10000000F6C410C50FC50EC50DC50CC50BC50AC578
:1000100009C508C507C506C505C504C503C5000053
:1000200000000000000000000000000000000000D0
:100030000000000000000000000000000000C700F9
:100040000000FF0000003F00000000000000000072
:1000500000000000000000000000000000000000A0
:100060000000000000000000000000000000000090
:10007000000000000000000E0000000E0000000E56
:100080000000000E0000000E0000000E0000000E38
:100090000000000E00000000000000000000000052
:1000A0000000000000000000000000000000000050
:1000B0000000000000000000000000000000070039
:1000C0000000070000000700000000000000000022
:1000D0000000000000000000000000000000000020
:1000E0000000000000000000000000000000000010
:1000F00000000600000007C0000003F80000003FF9
:1001000080000007F0000000FE0000000FE000008B
:1001100001F00000003000000000000000000000BE
:100120000000001FFC00007FFF0001FFFFC003E094
:1001300003E0038000E007000070060000300600C6
:1001400000300600003007000070038000E003E08C
:1001500003E001FFFFC0007FFF00001FFC00000064
:10016000000000000000000000000000000000008F
:1001700003000000030000000300000003800000F3
:1001800001C007FFFFE007FFFFF007FFFFF00000DF
:100190000000000000000000000000000000060059
:1001A00000000780060007C0078007E007C007F0CF
:1001B00001E006780060063C0030063C0030061E78
:1001C0000030060F0030060780300603C0700601BD
:1001D000F0E00600FFE006007FC006001F00000000
:1001E00000000060030001E003C003E003E00380BF
:1001F00000E007000070060000300600C030060076
:10020000C0300600C0300600E0700301F0E0038358
:10021000BFE001FFBFC000FF0F00007C00000038FE
:100220000000003C0000003F00000033800000316F
:10023000E0000030700000303C0000300E00003064
:100240000780003001C007FFFFF007FFFFF007FF46
:10025000FFF000300000003000000030000000001F
:1002600000000060000001E0FC0003E0FFF00380FC
:10027000FFF0070063F00600303006003030060063
:10028000303006003030070030300300703003C1DA
:10029000E03001FFC03000FF8030003F0000000070
:1002A0000000001FF800007FFF0001FFFFC003E017
:1002B000C7C0038060E007006070060030300600B1
:1002C000303006003030060030300700707003C157
:1002D000E0E001FFC3E000FF83C0003F0300000037
:1002E000000000000030000000300000003004007A
:1002F00000300780003007E0003003F80030007F56
:100300000030001FC0300007F8300000FE30000051
:100310003FB000000FF0000001F00000007000008E
:1003200000000078000001FE0F8003FF1FC003875C
:100330003FE00703F8600601E0300600E030060009
:10034000C0300600E0300601E0300703F8600387A4
:100350003FE003FF1FC001FE0F8000780000000097
:10036000000000607E0001E0FF8003E1FFC0038326
:10037000C1E00707007006060030060600300606DA
:1003800000300606003007030070038300E001F12F
:1003900083E001FFFFC0007FFF00000FFC000000B2
:1003A000000000000000000000000000000000004D
:1003B0000000000000000000000000000000070036
:1003C0001C0007001C0007001C00000000000000CB
:1003D000000000000000000000000000000000001D
:1003E000000000000000000000000000000000000D
:1003F00000F8000000000000001B000000000000EA
:1004000078007800000000000000000000000040BC
:10041000F04040F0400000020F02020F020000C056
:1004200020F0202000000008091F0906000000300D
:100430004830C0201800001804030C120C000060A3
:10044000909060000000000E1111120C12000000CC
:100450000078000000000000000000000000000024
:1004600000C030080400000000071820400000040D
:100470000830C00000000040201807000000000005
:1004800040808040000000010503030501000000DA
:100490000000E0000000000101010F010101000067
:1004A00000000000000000403018080000000000BC
:1004B0000000000000000001010101010100000036
:1004C00000000000000000001038100000000000D4
:1004D0000000C0300C0000300C030000000000E001
:1004E00010088810E00000070811100807000040FD
:1004F0002010F8000000000000001F000000003085
:10050000080808887000001814121110100000105C
:10051000088888887000000C101010100F00000070
:10052000C03008F8000000030202021F020000F8B9
:10053000484848488800000C101010100F0000F0C8
:10054000088888881000000F111010100F00000894
:1005500008088868180000001806010000000070F4
:10056000888888887000000F101010100F0000F0AD
:1005700008080888F0000008111111100F00000091
:1005800040E04000000000001038100000000000B3
:1005900040E040000000004030180800000000006B
:1005A00080402010000000010204081000000080BC
:1005B00080808080800000040404040404000000A3
:1005C0001020408000000000100804020100000814
:1005D00008884830000000001B000000000000E018
:1005E00010884848F000000708131414070000F0B2
:1005F00008080808F000001F010101011F0000F8B1
:10060000888888F00000001F101010100F0000F004
:10061000080808083000000F101010100C0000F837
:1006200008080810E000001F10101008070000F86C
:10063000888888880800001F10101010100000F82B
:10064000888888880800001F00000000000000F073
:10065000080808083000000F101011110F0000F8F2
:1006600080808080F800001F000000001F0000084C
:1006700008F8080800000010101F1010000000000B
:1006800000080808F800000C101010100F0000F807
:100690008040A0100800001F00000106180000F8AC
:1006A000000000000000001F10101010100000F8E3
:1006B00030C000C030F8001F00000300001F00F829
:1006C00030C00000F800001F0000030C1F0000F005
:1006D00008080808F000000F101010100F0000F8B4
:1006E00008080808F000001F01010101000000F0E7
:1006F00008080808F000000F10101C302F0000F848
:1007000008080808F000001F010305091000007028
:100710008888080810000008101011110E00000849
:100720000808F8080808000000001F00000000F892
:1007300000000000F800000F101010100F0000F86B
:1007400000000000F800000106181806010000F87B
:100750000000800000F800071806010618070018BE
:1007600060808060180000180601010618000078FB
:10077000800000807800000000011F0000000008D9
:1007800008088868180000181413101010000000E2
:1007900000FC040404000000007F40404000000C06
:1007A00030C00000000000000000030C3000000416
:1007B0000404FC000000004040407F0000000020D6
:1007C00010080810200000000000000000000000D9
:1007D0000000000000000040404040404000000099
:1007E0000818304000000000000000000000000079
:1007F000404040408000000E111111091F0000F818
:10080000804040408000001F081010100F00008042
:10081000404040408000000F101010100800008081
:1008200040404080F800000F101010081F000080AA
:10083000404040408000000F1212121213000000CE
:10084000F0080808100000011F01010100000080ED
:1008500040404080C0000047888888847F0000F8BE
:10086000804040408000001F000000001F0000008A
:100870004040D8000000000000001F000000000001
:10088000004040D8000000204040403F000000F8F9
:10089000000080400000001F020304081000000058
:1008A000F8000000000000000F101010000000C051
:1008B000404080404080001F00000700001F00C033
:1008C000804040408000001F000000001F000080AA
:1008D000404040408000000F101010100F0000C07A
:1008E00080404040800000FF0408080807000080A6
:1008F00040404080C000000708080804FF0000C016
:10090000804040408000001F000000000000008088
:100910004040404080000009121212120C000040BA
:10092000F0404040000000000F101010080000C010
:1009300000000000C000000F101010081F0000C0D1
:1009400000000000C000000106181806010000C0E9
:100950000000000000C0000F10080708100F004042
:10096000800000804000001008050508100000C04D
:1009700000000000C0000047888888847F00004095
:1009800040404040C0000010181412111000F00C3C
:1009900002F10804E010030C102304080102000017
:1009A00000FC000000000000003F00000000F8080C
:1009B00008F8040201FF0F08080F1020407F0060B4
:1009C0001010204040300000000000000000AED5B4
:1009D000F0A83FD300408D142000A1C8DA12813F57
:1009E000D922DB20A4A62EAF22003F21007F1124B4
:1009F0001FBECFE5D2E0DEBFCDBF10E0A0E6B0E085
:100A0000E4E7FBE102C005900D92A43DB107D9F7E0
:100A100020E0A4EDB0E001C01D92AD3FB207E1F7C8
:100A2000B7D4A6C8EDCA0F931F938091600007E862
:100A300010E0823011F00BE810E026E048E068E0BA
:100A40008EED93E028D22FE58AEE90E02150804091
:100A50009040E1F700C000001F910F9108950F939F
:100A60001F93809161000FE810E0882361F005E991
:100A700010E0813041F00BE910E0823021F083304A
:100A800041F401EA10E024E048E568E08EED93E0EF
:100A900002D22FE58AEE90E0215080409040E1F7AD
:100AA00000C000001F910F9108958F929F92AF9206
:100AB000BF92CF92DF92EF92FF920F931F93CF934B
:100AC000DF934B015C01C090D500D090D600E09040
:100AD000D700F090D80028EE33E040E050E0F3D7A4
:100AE000CA01B90142EF50E0F2D2C2EFD0E0099062
:100AF0000020E9F7C35FD0408091E1008C1741F1FD
:100B000081111092DA0007EA10E020E040E168E08D
:100B10008EED93E0C0D122E040E168E08EED93E0FD
:100B2000BAD18091E000811111C08091DA00811169
:100B30000CC082E0E0E88E16E6E99E06E8E9AE0623
:100B4000B10408F481E0809360006DDFC093E100A0
:100B500046E050E04C1B51094295407F02EF10E007
:100B600020E060E18EE190E096D1C501B40128EE6D
:100B700033E040E050E0A7D7A801A9D202EB10E093
:100B800020E048E668E08EED93E085D182EF90E0CA
:100B9000FC0101900020E9F7CF01835F904068EFEE
:100BA00078D740E8480F02EF10E020E068E08EEDD3
:100BB00093E071D18091E0000DEA10E081113BC01B
:100BC00002EB10E026E040E668E08EED93E063D1B2
:100BD000B601D7FE04C0662777276C197D09072E5A
:100BE000000C880B990B42EF50E071D282EF90E03D
:100BF000FC0101900020E9F7CF01835F90404FE0B6
:100C000050E0481B5109440F440F440F02EF10E01D
:100C100026E068E08EED93E03ED18091D500909182
:100C2000D600A091D700B091D80006EB10E0B7FF36
:100C300002C008EB10E026E048E568E08EED93E0A6
:100C40002AD1DF91CF911F910F91FF90EF90DF900C
:100C5000CF90BF90AF909F908F9008950F931F9368
:100C600000EB10E026E040E068E08EED93E013D169
:100C700026E048E268E08EED93E00DD18091D90046
:100C8000813091F48091DB000AEB10E026E040E037
:100C9000882331F0813041F40AEB10E026E048E28D
:100CA00068E08EED93E0F7D01F910F910895CF92F9
:100CB000DF92EF92FF926093ED007093EE008093CD
:100CC000EF009093F000C090D500D090D600E09057
:100CD000D700F090D800C114D104E104F10491F0E0
:100CE000E091E200E1110EC0DC01CB018C0D9D1DF5
:100CF000AE1DBF1D8093ED009093EE00A093EF001A
:100D0000B093F0008091ED009091EE00A091EF0083
:100D1000B091F00060916000623061F528173907EA
:100D20004A075B0768F4821B930BA40BB50B8093F7
:100D3000ED009093EE00A093EF00B093F0000CC094
:100D4000281B390B4A0B5B0B2093ED003093EE0010
:100D50004093EF005093F0006091ED007091EE0031
:100D60008091EF009091F00040E0FF90EF90DF90D5
:100D7000CF904EC2820F931FA41FB51FD8CF61150D
:100D800071058105910551F06093ED007093EE00BF
:100D90008093EF009093F00041E03AC20895369AB4
:100DA000349BFECF85B10895B99ABA9AC29AC19A76
:100DB000C198C2980895C298C198C29AC19AB99828
:100DC000089530E020E090E0AC01022E01C0440F15
:100DD0000A94EAF747FF0CC0C19AC29AC2982F5FE3
:100DE0003F4F2830310581F7C19AC29AC2980895C1
:100DF000C198F3CFD9DF88E7E4DF80E0E2CFD4DF2A
:100E000088E7DFDF80E4DDCFDCCFD5CFCF93DF9382
:100E1000F1DFCEECD9E0FE018491D3DF2196F9E039
:100E2000CE3EDF07C1F7DF91CF91C5CFCF93DF93E0
:100E3000C82FD62FDFDF8D2F8770806BC2DF8C2FFE
:100E40008F70BFDF8C2F82958F708061BADFDF914A
:100E5000CF91B1CFEF92FF920F931F93CF93DF9378
:100E6000E82EF62E042F122F60E080E0DFDFC7DFD0
:100E7000C0E0D1E08E2DA5DF8F2DA3DF802FA1DF75
:100E8000812F9FDF2197B1F7DF91CF911F910F91B4
:100E9000FF90EF9090CF2F923F924F925F926F9280
:100EA0007F928F929F92AF92BF92CF92DF92EF92FA
:100EB000FF920F931F93CF93DF9300D000D000D009
:100EC0001F92CDB7DEB76C01762E4E832F8328019B
:100ED00010E000E003969B838A83E62FF0E0FD8319
:100EE000EC831601F8E02F0E311CF20181912F01E5
:100EF000811119C027960FB6F894DEBF0FBECDBF83
:100F0000DF91CF911F910F91FF90EF90DF90CF90E5
:100F1000BF90AF909F908F907F906F905F904F9019
:100F20003F902F90089596E0791210C0082E000C83
:100F3000990B66E070E0B6D58C01005C1109EE817A
:100F4000E93798F46F818E8171DF1CC0F8E07F1261
:100F500043C0082F880F110B34E0000F111F3A9582
:100F6000E1F712508E81893768F3FF81FF5FFF83BD
:100F70006F2F80E05BDF86E0781619F098E0791239
:100F800048C01E823CDFF12CE12C5601A00EB11EA0
:100F90008C819D818E159F0599F537DF98E0791238
:100FA00016C06F816F5F8E8141DF29DFF12CE12C4C
:100FB0005101A00EB11EF501EE0DFF1D849124DF3D
:100FC000EFEFEE1AFE0AF8E0EF16F104A1F71DDFCD
:100FD0008E81870D8E8389CF90E1791270C0082FA2
:100FE000880F110B26E0000F111F2A95E1F71B5007
:100FF000EE81E93708F0B9CF6F818E8117DF0DC020
:10100000F501EE0DFF1D8491FFDEEFEFEE1AFE0AF3
:10101000BFCF80E11E827812DBCF6F806394EA80BD
:10102000FB80E00EF11E9F819D5F99835701E7DEF3
:10103000912C812CF401EE0FFF1FEE0FFF1FEA0D24
:10104000FB1D8491E1DEEFEF8E1A9E0AF0E18F1610
:10105000910481F7DADE662D8E81E8DE639481E00B
:10106000A81AB10899816912E2CF6F816E5F8E81F3
:10107000DDDEEF81EB5FE983C2DEB12CA12C4701FD
:10108000F2E08F1A9108F501EE0FFF1FEE0FFF1F20
:10109000E80DF91D8491B8DE8FEFA81AB80A90E127
:1010A000A916B10481F7B1DE662D8E81BFDE63948F
:1010B000E1E0EE1AF108F981F611DECF89CFFE8169
:1010C000F93708F052CF6F818E81B0DE81CF8F92D9
:1010D0009F92AF92BF92EF92FF921F93CF93DF93B5
:1010E000EA0110E02AE0822E912CA12CB12C7E0185
:1010F000E10EF11CA5019401E6D4605DF701608367
:10110000B901CA011F5F611571058105910579F764
:10111000FE01E10FF11D1082FE0101900020E9F7B0
:10112000EC1B9EEF9E0F80E0E92FE81B8E1750F01E
:10113000DF91CF911F91FF90EF90BF90AF909F9064
:101140008F900895DE01A80FB11D2C91EC0FFD2F9B
:10115000F11D30813C9320838F5FE6CFCF93DF93E7
:10116000D82FC62F21DE80EC2CDE8D2F2ADE8C2F8F
:1011700028DEDF91CF911FCEFF920F931F93CF9365
:10118000DF93C82FF62E072F142F0EDE80EC19DE0A
:101190008C2F17DECF2DD02F115030F4DF91CF914F
:1011A0001F910F91FF9007CE89910BDEF5CFCF9362
:1011B000DF93CDB7DEB728970FB6F894DEBF0FBE2A
:1011C000CDBF60E085E9CADF60917F0083E0C6DFC4
:1011D00062ED87EBC3DF198281E08A831B828FE097
:1011E0008C8380E88D831E821F82188648E0BE01B2
:1011F0006F5F7F4F8AE1C0DF60E281EBAFDF28964F
:101200000FB6F894DEBF0FBECDBFDF91CF9108952A
:101210004F925F926F927F929F92AF92BF92CF92C6
:10122000DF92EF92FF920F931F93CF93DF93CDB78F
:10123000DEB728970FB6F894DEBF0FBECDBF6B01A7
:101240007C01942EA42EB12C01E010E001C0000F0F
:101250004A95EAF7DC01CB018052914AA740B109D7
:1012600081329449A747B640F8F080917F00082B5F
:1012700000937F0060917F0083E070DF28960FB6B7
:10128000F894DEBF0FBECDBFDF91CF911F910F91BC
:10129000FF90EF90DF90CF90BF90AF909F907F90A6
:1012A0006F905F904F9008956091830070918400DB
:1012B0008091850090918600A701960104D42901B0
:1012C0003A01A701960122273327407F232B242BA5
:1012D000252B09F054C027E0660F771F881F991F40
:1012E0002A95D1F7A7019601EED3E7E0440C551CEF
:1012F000661C771CEA95D1F7E2E05E1A6108710876
:10130000420E531E641E751E2091F10030E050E025
:1013100040E0F4E1220F331F441F551FFA95D1F727
:10132000422A532A642AD982CA826B825C824D8205
:10133000A4E0CC0CDD1CEE1CFF1CAA95D1F7CC243C
:10134000DD2420EFE222FF24E82AEE827F836887F3
:10135000892D880F880F880F48E0BE016F5F7F4F8F
:10136000865D0ADFF501E058FF4F60816C6080E127
:10137000890DF4DE009580917F00082379CF969542
:10138000879577956795F694E794D794C79499CF06
:1013900017BA88B3816188BBC39883E287B98CE8A8
:1013A00086B913B8A39A90E080E0B7D36093ED00BC
:1013B0007093EE008093EF009093F0006B017C013E
:1013C00020EAC21A26E8D20A21E0E20AF10831EE48
:1013D000C3163CE3D30638ECE30631E0F30640F4F1
:1013E00060937B0070937C0080937D0090937E00DF
:1013F00084E090E092D36093ED007093EE008093D0
:10140000EF009093F000613823EC720729EC82071B
:1014100021E0920740F46093770070937800809306
:10142000790090937A0080917B0090917C00A0914C
:101430007D00B0917E0080389649A849B10518F02A
:1014400082E08093600088E090E05FD38093DA00D0
:101450009FEF980F923028F48093600081E0809392
:10146000DA009DDC8093D4008B3060F481E08093BF
:10147000E0008FE996E821E0815090402040E1F7BC
:1014800000C000008FE097E20197F1F700C0000074
:101490008EDE209177003091780040917900509154
:1014A0007A0060917B0070917C0080917D0090912A
:1014B0007E00FDDB6091770070917800809179006B
:1014C00090917A005CDC8FE097E20197F1F700C021
:1014D00000009CDC20E040E060E080E0BBDC07E94D
:1014E00010E022E048E668E08EED93E0D4DC0CEBFF
:1014F00010E024E040E368E08EED93E0CCDC01EC0A
:1015000010E020E040E068E08EED93E0C4DC8091E4
:10151000E000813009F09EC103EC10E026E040E3DA
:1015200068E08EED93E0B7DC1092730010927400C7
:10153000109275001092760020917700309178001B
:101540004091790050917A0060917B0070917C000D
:1015500080917D0090917E00A8DA8091610090E0FA
:101560007EDA77247394C1E0D2E020E8C22E23EC27
:10157000D22E29ECE22EFF24F39430EA832E36E8B3
:10158000932EAA24A394B12C0ADC8093D40086B3B2
:101590008295817087258093E80096B3909591702D
:1015A0009093E700891304C08093E6008093E500E0
:1015B0009091E600891709F440C08093E60080917D
:1015C000D900811159C1E0916100F0E0EE0FFF1FD9
:1015D000EE0FFF1FED59FF4F80917B0090917C0033
:1015E000A0917D00B0917E00408151816281738124
:1015F000841B950BA60BB70B4091730050917400A0
:101600006091750070917600481759076A077B074B
:1016100008F029C1803823EC920729ECA20721E0C9
:10162000B20708F020C180937B0090937C00A093C8
:101630007D00B0937E00C093E3008091E70090911D
:10164000E500891791F18093E5008091D90081111F
:1016500050C1E0916100F0E0EE0FFF1FEE0FFF1FA1
:10166000ED59FF4F80819181A281B38140917B0030
:1016700050917C0060917D0070917E00840F951FD9
:10168000A61FB71F803823EC920729ECA20721E0A0
:10169000B20708F025C180937B0090937C00A09353
:1016A0007D00B0937E00C093E3008091D4008B3026
:1016B00008F0C4C18091DC009091DD00A091DE00B3
:1016C000B091DF00892B8A2B8B2B91F48091D9006C
:1016D000811145C180916100209162002150330B3E
:1016E000821713060CF038C18F5F80936100B7D961
:1016F0008091DC009091DD00A091DE00B091DF00D0
:101700000196A11DB11D8093DC009093DD00A09394
:10171000DE00B093DF0087EA91E60197F1F700C0A1
:1017200000001091E0008091DC009091DD00A0911C
:10173000DE00B091DF00112309F475C14597A105C2
:10174000B10508F442C01092DC001092DD00109246
:10175000DE001092DF00113009F021C140917B00C2
:1017600050917C0060917D0070917E0090E080E05F
:10177000E7D180917B0090917C00A0917D00B09199
:101780007E008093E9009093EA00A093EB00B09371
:10179000EC008091770090917800A0917900B09151
:1017A0007A0080937B0090937C00A0937D00B0939F
:1017B0007E00D093E0001093E3000DEC10E026E0F3
:1017C00040E368E08EED93E066DB6090E20080919C
:1017D000D4008C538F3108F03AC1611014C0C0930B
:1017E000E20000EB10E020E040E068E08EED93E0E6
:1017F00052DB02ED10E022E040E068E08EED93E085
:101800004ADBC093E3008091E300882309F4BCCE57
:1018100060917B0070917C0080917D0090917E00B2
:101820002091E000223009F02AC1A9DA2091770046
:10183000309178004091790050917A0060917B005E
:1018400070917C0080917D0090917E002ED9109245
:10185000E3009ACE08EC10E026E040E368E08EED6D
:1018600093E019DB69CE40937B0050937C0060933A
:101870007D0070937E00DFCE813009F0DECE2091B6
:10188000DB0021110BC090916000923021F4809315
:101890006000C9D8D0CED0936000FBCF213009F0D2
:1018A000CCCE8091D5009091D600A091D700B09178
:1018B000D800893A3DEF93073FEFA307B3070CF435
:1018C000BCCE84569109A109B1098093D5009093AB
:1018D000D600A093D700B093D8002093E300ADCEFC
:1018E000C0927B00D0927C00E0927D00F0927E005E
:1018F000DACE813009F0D9CE2091DB0021110BC066
:1019000090916000923021F4809360008CD8CBCE0F
:10191000D0936000FBCF213009F0C7CE8091D50075
:101920009091D600A091D700B091D800883532E0D0
:101930009307A105B1050CF0B8CE8C599F4FAF4F5E
:10194000BF4F8093D5009093D600A093D700B0935B
:10195000D8002093E300A9CE10926100C8CE813058
:1019600009F0C6CE9091DB00911104C08093DB009A
:1019700075D9BECE1092DB001092D90040917B0049
:1019800050917C0060917D0070917E0090E080E03D
:10199000D7D06091600088E090E0C4D0E9CF1230E9
:1019A00009F013CF40917B0050917C0060917D0045
:1019B00070917E0084E090E0C3D080917B00909194
:1019C0007C00A0917D00B0917E0080937700909381
:1019D0007800A0937900B0937A008091E90090910B
:1019E000EA00A091EB00B091EC0080937B00909313
:1019F0007C00A0937D00B0937E001092E000C09325
:101A0000E3008092730090927400A0927500B092EF
:101A1000760008EC10E026E040E368E08EED93E00D
:101A20003ADA01D8D2CE4597A105B10508F4CDCE5A
:101A30001092DB00C093D90011D9C7CE1092DC0000
:101A40001092DD001092DE001092DF00BECE91E019
:101A50006912D9CE1092E20001EC10E020E040E0E3
:101A600068E08EED93E017DA00EB10E022E040E052
:101A700068E08EED93E00FDA6092E300C4CE20912F
:101A80007700309178004091790050917A000FD919
:101A9000CDCE002480FD060E660F11F08695D1F79D
:101AA000802D08950024552704C0080E591F880F63
:101AB000991F009729F076956795B8F37105B9F7E6
:101AC000802D952F0895A1E21A2EAA1BBB1BFD01A4
:101AD0000DC0AA1FBB1FEE1FFF1FA217B307E4070D
:101AE000F50720F0A21BB30BE40BF50B661F771F65
:101AF000881F991F1A9469F7609570958095909545
:101B00009B01AC01BD01CF010895E199FECF9FBBC0
:101B10008EBBE09A99278DB30895A6E1B0E044E02A
:101B200050E018C0262FE199FECF1CBA9FBB8EBB98
:101B30002DBB0FB6F894E29AE19A0FBE0196089574
:101B4000242FF1DF252FEFDF00C0ECDF272FEBCFB5
:101B5000DC01CB01FC01E199FECF06C0FFBBEEBB6F
:101B6000E09A31960DB20D9241505040B8F7089569
:041B7000F894FFCF17
:101B740001020464000000E8030000881300004030
:101B8400420F00A0860100880C7A0060566C00FFAA
:101B940003030340262934555342004C5342003179
:101BA4003030487A0020316B487A0020356B487A0F
:101BB4000020314D487A00202020202020202020A1
:101BC4002000303030002B002D003E00535445508F
:101BD400007D002356464F005249542000234246BC
:041BE4004F007B0033
:00000001FF
