:10000000F6C410C50FC50EC50DC50CC50BC50AC578
:1000100009C508C507C506C505C504C503C5000053
:1000200000000000000000000000000000000000D0
:10003000000040000000E38000007F8000003F805F
:1000400000000000000000000000000000000000B0
:1000500000000000000000000000000000000000A0
:10006000000000000000000000000000E0000000B0
:10007000E0000000E0000000E0000000E000000000
:10008000E0000000E0000000E0000000E0000000F0
:100090000000000000000000000000000000000060
:1000A0000000000000000000000000000000000050
:1000B000000000000000E0000000E0000000E000A0
:1000C0000000000000000000000000000000000030
:1000D0000000000000000000000000000000000020
:1000E00000000000000080000000F8000000FF8019
:1000F00000007FF8000007FF8000007FF800000785
:10010000FF8000007FF8000007F800000078000082
:10011000000000000000000000000000000000FFE0
:10012000F8000FFFFF001FFFFFC03F0007E078004F
:1001300000F0F0000078E0000038E0000038E00057
:100140000038F0000078780000F03F0007E01FFF63
:10015000FFC007FFFF0000FFF800000000000000E4
:100160000000000000000000380000001C0000003B
:100170000E0000000F0000000780000003C0FFFF1A
:10018000FFF0FFFFFFF8FFFFFFF800000000000096
:100190000000000000000000000000000000E0007F
:1001A0000E00F8000FC0FE000FE0FF0001F0EF802E
:1001B0000070E7C00078E1E00038E0F00038E07857
:1001C0000038E03E0038E01F0078E00FC1F0E003A7
:1001D000FFE0E001FFC0E0003F000000000007007A
:1001E00003001F0003C03F0003E07C0000F070002C
:1001F0000078E0000038E0038038E0038038E00356
:100200008038F003C0787007E0F07C1FFFE03FFE0D
:100210007FC01FFC1F8003F000000000000001E011
:10022000000001F8000001FE000001DF800001C7AE
:10023000E00001C1F00001C07C0001C03F0001C02E
:100240000FC001C003F0FFFFFFF8FFFFFFF8FFFF43
:10025000FFF801C0000001C0000001C0000007035A
:10026000C0001F03FF803F03FFF87C01FFF8700010
:10027000E078E0007038E0007038E0007038E000AE
:100280007038F000F0387801E0387E03E0381FFF66
:10029000C0380FFF803801FC00000000000000FFA4
:1002A000F0000FFFFF001FFFFFC03E0783E0780153
:1002B000C0F0F001C070E000E038E000E038E0009D
:1002C000E038F001E0387801C0787C07C0F03FFFEB
:1002D00083E00FFF03C003FC0300000000000000E8
:1002E00000380000003800000038F8000038FFC077
:1002F0000038FFF8003807FF0038003FC03800071B
:10030000F0380000FC3800003F3800000FB8000053
:1003100003F8000000F8000000380000000007F0BB
:1003200000001FFC1F803FFE7FE07C1EFFF0700777
:10033000E0F0F003C078E0038038E0038038E003A9
:100340008038E007C0787007E0F07C1EFFF03FFCCB
:100350007FC01FF81F8007F00000000000000600AB
:10036000FE001E07FFC07E0FFFE0781F03F0F01CA9
:1003700000F0E03C0078E0380038E0380038E03841
:100380000038701C0078781C00F03E0F01E01FFF61
:10039000FFC007FFFF80007FF800000000000000A2
:1003A000000000000000000000000000000000004D
:1003B000000000000000E0003800E0003800E0002D
:1003C00038000000000000000000000000000000F5
:1003D000000000000000000000000000000000001D
:1003E000000000000000000000000000000000000D
:1003F000F8000000000000001B0000000000007872
:10040000007800000000000000000000000040F044
:100410004040F0400000020F02020F020000C02026
:10042000F0202000000008091F09060000003048E5
:1004300030C0201800001804030C120C000060905B
:100440009060000000000E1111120C12000000005C
:100450007800000000000000000000000000000024
:10046000C030080400000000071820400000040805
:1004700030C00000000040201807000000000040CD
:10048000808040000000010503030501000000001A
:1004900000E0000000000101010F01010100000067
:1004A00000000000000040301808000000000000BC
:1004B0000000000000000101010101010000000036
:1004C00000000000000000103810000000000000D4
:1004D00000C0300C0000300C030000000000E010F1
:1004E000088810E0000007081110080700004020ED
:1004F00010F8000000000000001F0000000030089D
:10050000080888700000181412111010000010085C
:100510008888887000000C101010100F000000C0B8
:100520003008F8000000030202021F020000F84831
:100530004848488800000C101010100F0000F00808
:100540008888881000000F111010100F0000080894
:100550000888681800000018060100000000708874
:100560008888887000000F101010100F0000F0082D
:10057000080888F0000008111111100F0000004059
:10058000E0400000000000103810000000000040B3
:10059000E04000000000403018080000000000802B
:1005A00040201000000001020408100000008080BC
:1005B0008080808000000404040404040000001013
:1005C000204080000000001008040201000008081C
:1005D000884830000000001B000000000000E01010
:1005E000884848F000000708131414070000F008BA
:1005F000080808F000001F010101011F0000F88831
:100600008888F00000001F101010100F0000F00884
:100610000808083000000F101010100C0000F80837
:10062000080810E000001F10101008070000F888EC
:100630008888880800001F10101010100000F8882B
:100640008888880800001F00000000000000F008F3
:100650000808083000000F101011110F0000F8807A
:10066000808080F800001F000000001F00000808C4
:10067000F8080800000010101F1010000000000013
:10068000080808F800000C101010100F0000F88087
:1006900040A0100800001F00000106180000F8002C
:1006A0000000000000001F10101010100000F830B3
:1006B000C000C030F8001F00000300001F00F83029
:1006C000C00000F800001F0000030C1F0000F0082D
:1006D000080808F000000F101010100F0000F808B4
:1006E000080808F000001F01010101000000F008E7
:1006F000080808F000000F10101C302F0000F80848
:10070000080808F000001F010305091000007088A8
:1007100088080810000008101011110E00000808C9
:1007200008F8080808000000001F00000000F8009A
:10073000000000F800000F101010100F0000F8006B
:10074000000000F800000106181806010000F8007B
:1007500000800000F800071806010618070018605E
:1007600080806018000018060101061800007880DB
:100770000000807800000000011F00000000080851
:1007800008886818000018141310101000000000EA
:10079000FC040404000000007F40404000000C30D6
:1007A000C00000000000000000030C300000040442
:1007B00004FC000000004040407F000000002010CA
:1007C00008081020000000000000000000000000E9
:1007D0000000000000004040404040400000000891
:1007E0001830400000000000000000000000004041
:1007F0004040408000000E111111091F0000F880D8
:100800004040408000001F081010100F0000804082
:100810004040408000000F10101010080000804081
:10082000404080F800000F101010081F00008040AA
:100830004040408000000F1212121213000000F01E
:10084000080808100000011F01010100000080409D
:10085000404080C0000047888888847F0000F8807E
:100860004040408000001F000000001F00000040CA
:1008700040D8000000000000001F00000000000041
:100880004040D8000000204040403F000000F800F9
:100890000080400000001F0203040810000000F860
:1008A000000000000000000F101010000000C04009
:1008B0004080404080001F00000700001F00C080F3
:1008C0004040408000001F000000001F00008040EA
:1008D0004040408000000F101010100F0000C0803A
:1008E000404040800000FF040808080700008040E6
:1008F000404080C000000708080804FF0000C080D6
:100900004040408000001F000000000000008040C8
:1009100040404080000009121212120C000040F00A
:10092000404040000000000F101010080000C00000
:10093000000000C000000F101010081F0000C000D1
:10094000000000C000000106181806010000C000E9
:1009500000000000C0000F10080708100F004080C2
:100960000000804000001008050508100000C000CD
:10097000000000C0000047888888847F0000404055
:10098000404040C000001018141211100000000078
:1009900000F8040400000001013E40400000000097
:1009A000FC000000000000003F0000000000040404
:1009B000F8000000000040403E010100000060100F
:1009C00010204040300000000000000000AED5F0D4
:1009D000A83FD300408D142000A1C8DA12813FD96E
:1009E00022DB20A4A62EAF22003F21007F0011248D
:1009F0001FBECFE5D2E0DEBFCDBF10E0A0E6B0E085
:100A0000E0E3FAE102C005900D92AC3CB107D9F7E2
:100A100020E0ACECB0E001C01D92AD3EB207E1F7C2
:100A20005BD404C8EDCA0F931F938091600082309D
:100A300019F407E810E002C00BE810E026E048E0F7
:100A400068E08DED93E0B5D12FE58AEE90E021507E
:100A500080409040E1F700C000001F910F91089581
:100A60000F931F9380916100811103C00FE810E084
:100A70000EC0813019F405E910E009C0823019F484
:100A80000BE910E004C0833041F401EA10E026E0F5
:100A900045E568E08DED93E08CD12FE58AEE90E09E
:100AA000215080409040E1F700C000001F910F915D
:100AB00008958F929F92AF92BF92CF92DF92EF9262
:100AC000FF920F931F93CF93DF936B017C0128EE6E
:100AD00033E040E050E0DBD649015A0142EE50E0FD
:100AE000C501B4017BD2C2EED0E009900020E9F745
:100AF0002197C25ED0408091D2008C1711F107EA95
:100B000010E020E040E068E08DED93E052D122E07B
:100B100040E068E08DED93E04CD18091D1008111EF
:100B20000EC030E8C31636E9D30638E9E306F1040F
:100B300010F082E001C081E08093600074DFC09318
:100B4000D20045E050E04C1B51094295407F02EE37
:100B500010E020E060E18EE190E02BD1C501B4010E
:100B600028EE33E040E050E0B6D6C901DA01A70133
:100B70009601281B390B4A0B5B0BCA01B901A8016E
:100B80002DD202EB10E020E046E668E08DED93E028
:100B900010D1E2EEF0E001900020E9F73197CF01AB
:100BA000825E904068EF59D64EE7480F02EE10E0A3
:100BB00020E068E08DED93E0FCD0DF91CF911F91B4
:100BC0000F91FF90EF90DF90CF90BF90AF909F90EC
:100BD0008F9008950F931F9300EB10E026E040E004
:100BE00068E08DED93E0E5D026E048E268E08DED29
:100BF00093E0DFD08091CC00813029F406EB10E047
:100C000026E040E006C0823041F406EB10E026E02A
:100C100048E268E08DED93E0CCD01F910F910895EC
:100C2000EF92FF920F931F93E0916000E230A9F4DE
:100C3000261737074807590738F4DC01CB01821B18
:100C4000930BA40BB50B0FC079018A01E61AF70AC2
:100C5000080B190BD801C70106C0DC01CB01820FBC
:100C6000931FA41FB51F8093DD009093DE00A09317
:100C7000DF00B093E0006091DD007091DE008091B4
:100C8000DF009091E00040E01F910F91FF90EF9006
:100C900058C2611571058105910551F06093DD0021
:100CA0007093DE008093DF009093E00041E049C242
:100CB0000895B99ABA9AC29AC19AC198C2980895E9
:100CC000C298C198C29AC19AB998089520E030E0BC
:100CD00090E0AC01022E01C0440F0A94EAF747FFEE
:100CE00002C0C19A01C0C198C29AC2982F5F3F4FFB
:100CF0002830310571F7C19AC29AC2980895D9DF98
:100D000088E7E4DF80E0E2CFD4DF88E7DFDF80E45C
:100D1000DDCFDCCFD5CF1F93CF93DF93F0DFCDECCA
:100D2000D9E01C2F105EFE018491D0DF21961C13A8
:100D3000FACFDF91CF911F91C3CF1F93CF93DF9352
:100D40001F92CDB7DEB7182F6983D9DF6981862F4F
:100D50008770806BBBDF812F8F70B8DF812F82950A
:100D60008F708061B3DF0F90DF91CF911F91A8CF7B
:100D7000EF92FF920F931F93CF93DF93E82EF62EFF
:100D8000042F122F60E080E0D8DFBEDFC0E0D1E0AA
:100D90008E2D9CDF8F2D9ADF802F98DF812F96DF9D
:100DA0002197B1F7DF91CF911F910F91FF90EF90B5
:100DB00087CF2F923F924F925F926F927F928F9246
:100DC0009F92AF92BF92CF92DF92EF92FF920F93DA
:100DD0001F93CF93DF9300D000D0CDB7DEB75C0177
:100DE000762E4B832C83E12CF12C862F90E09A8376
:100DF0008983F80181918F01882309F4D8C096E096
:100E000079120DC0082E000C990B66E070E02ED50B
:100E1000805C91097C01EB81E93718F5C4C0F8E0EA
:100E20007F120EC0E82E880FFF0824E0EE0CFF1C96
:100E30002A95E1F782E0F81A9B81993790F4B3C0C4
:100E4000E0E17E12A8C0E82E880FFF0896E0EE0CC5
:100E5000FF1C9A95E1F7FBE0FF1A8B81893708F4B4
:100E600045C09C819F5F9C83692F80E066DFE6E040
:100E70007E1619F0F8E07F1234C01B8245DFC12CCA
:100E8000D12CE981FA81CE16DF0659F0F601EE0D7C
:100E9000FF1DEA0DFB1D84913CDF8FEFC81AD80AB5
:100EA000F0CF38DFF8E07F1611F034DF70C06C81CE
:100EB0006F5F8B8142DF28DF812C912C670188E0F6
:100EC000C80ED11CF601E80DF91DEA0DFB1D849139
:100ED00020DF9FEF891A990AE8E08E16910491F7B6
:100EE000E4CFF0E11B827F1252C003C06C818B8182
:100EF00024DF3C8033946701F3E0CF0ED11C83E004
:100F0000682E8C81680E4601FFDE412C512CF201C7
:100F1000E80DF91DEA0DFB1D8491FBDE84E0480E0F
:100F2000511C90E44916510491F7F4DE632D8B8136
:100F300004DF3394E1E08E1A91083610E5CF6C811E
:100F40006E5F8B81FADE1701FFEF2F1A3F0ADCDE9E
:100F5000412C512C460182E0881A9108F401E40DDD
:100F6000F51DEA0DFB1D8491D4DE94E0490E511C61
:100F7000E0E44E16510491F7CDDE662D8B81DDDE67
:100F80006394F1E0CF1AD108C214D30401F78B8126
:100F9000870D8B832ECF9B81993708F062CF6C81B0
:100FA0008B81CBDEF4CF6C818B81C7DE67CF0F9056
:100FB0000F900F900F90DF91CF911F910F91FF90A5
:100FC000EF90DF90CF90BF90AF909F908F907F90E9
:100FD0006F905F904F903F902F9008958F929F92C7
:100FE000AF92BF92EF92FF921F93CF93DF93EA01EC
:100FF00010E02AE0822E912CA12CB12C7E01E10E72
:10100000F11CA501940143D4605DD7016C93B90133
:10101000CA011F5F611571058105910579F7FE0110
:10102000E10FF11D1082FE0101900020E9F7EC1B99
:1010300080E05EEF5E0F952F981B891768F49E0184
:10104000280F311DF9014081DE01A90FB11D9C91CE
:1010500090834C938F5FEFCFDF91CF911F91FF90E3
:10106000EF90BF90AF909F908F9008951F93CF9374
:10107000DF931F92CDB7DEB7182F69831ADE80EC9D
:1010800025DE812F23DE6981862F20DE0F90DF9100
:10109000CF911F9115CEEF92FF921F93CF93DF93C5
:1010A00000D0CDB7DEB7F82E162F49837A8301DE44
:1010B00080EC0CDE8F2D0ADEE12E7A81F72E49813D
:1010C000140F1E1529F0F70181917F01FFDDF9CF83
:1010D0000F900F90DF91CF911F91FF90EF90F0CD87
:1010E000CF93DF93CDB7DEB728970FB6F894DEBF66
:1010F0000FBECDBF60E085E9B9DF60917F0083E07E
:10110000B5DF62ED87EBB2DF198281E08A831B8253
:101110008FE08C8380E88D831E821F82188648E0D2
:10112000BE016F5F7F4F8AE1B6DF60E281EB9EDF39
:1011300028960FB6F894DEBF0FBECDBFDF91CF91DA
:1011400008954F925F926F927F928F929F92AF928B
:10115000BF92CF92DF92EF92FF921F93CF93DF93D4
:10116000CDB7DEB728970FB6F894DEBF0FBECDBF60
:101170006B017C01142FDC01CB018052914AA74006
:10118000B10981329449A747B64050F081E090E020
:1011900001C0880F4A95EAF790917F00892B80C0A3
:1011A0006091830070918400809185009091860009
:1011B000A70196016CD34601570188249924E0EFDA
:1011C000AE2289288A288B2849F0969587957795AD
:1011D0006795F694E794D794C794EDCFE7E0660F50
:1011E000771F881F991FEA95D1F749015A01F7E047
:1011F000880C991CAA1CBB1CFA95D1F722E0921A04
:10120000A108B108A701960142D324013501420E7D
:10121000531E641E751E8090E100912CA12CB12CF0
:10122000A4E1880C991CAA1CBB1CAA95D1F78428A0
:101230009528A628B728D982CA82AB829C828D8243
:10124000CC24DD24EFE0EE22FF24B4E0CC0CDD1C46
:10125000EE1CFF1CBA95D1F7C62AD72AE82AF92A2C
:10126000EE827F836887812F880F880F880F48E080
:10127000BE016F5F7F4F865D0EDFE12FF0E0E0582B
:10128000FF4F60816C6080E1810FF0DE81E090E0D3
:1012900001C0880F1A95EAF7809590917F00892305
:1012A00080937F0060917F0083E0E0DE28960FB698
:1012B000F894DEBF0FBECDBFDF91CF911F91FF909D
:1012C000EF90DF90CF90BF90AF909F908F907F90E6
:1012D0006F905F904F90089517BAC49AC39AC09ABE
:1012E00080E090E078D36093DD007093DE0080931F
:1012F000DF009093E0008B019C01005A16482140CA
:101300003109013E1C43284C314040F460937B007E
:1013100070937C0080937D0090937E0083E090E04A
:101320005AD36093DD007093DE008093DF009093CA
:10133000E000613823EC720729EC820721E0920774
:1013400040F46093770070937800809379009093D5
:101350007A0080917B0090917C00A0917D00B091FB
:101360007E0080389649A849B10518F082E0809344
:101370006000B0990CC081E08093D1008FE996E8BD
:1013800021E0815090402040E1F700C000008FE054
:1013900097E20197F1F700C00000A2DE20917700EC
:1013A000309178004091790050917A0060917B00F3
:1013B00070917C0080917D0090917E0031DC609185
:1013C0007700709178008091790090917A0061DCCB
:1013D0008FE097E20197F1F700C000009CDC20E06D
:1013E00040E060E080E0C4DC07E910E022E046E68F
:1013F00068E08DED93E0DDDC8091D100813089F4EF
:1014000008EB10E026E040E368E08DED93E0D1DCEE
:101410001092730010927400109275001092760072
:1014200008C00DEB10E026E040E368E08DED93E0AE
:10143000C0DC209177003091780040917900509184
:101440007A0060917B0070917C0080917D0090918A
:101450007E002FDB8091610090E002DBD1E0C1E0F3
:1014600032E0732E40E8C42E43ECD42E49ECE42E37
:10147000FF24F39450EA852E56E8952EAA24A394CF
:10148000B12C86B3829581708D278093D80096B356
:1014900093FB992790F99D279093D700891304C057
:1014A0008093D6008093D5002091D600821709F44E
:1014B00047C08093D6008091CC00811141C0E0915B
:1014C0006100F0E0EE0FFF1FEE0FFF1FED59FF4F21
:1014D00040917B0050917C0060917D0070917E0076
:1014E0000081118122813381401B510B620B730BF0
:1014F0000091730010917400209175003091760076
:10150000041715072607370788F4403883EC580777
:1015100089EC680781E0780748F440937B0050939A
:101520007C0060937D0070937E0008C000937B0078
:1015300010937C0020937D0030937E00C093D300F5
:101540008091D500981709F45CC09093D5008091E4
:10155000CC00811133C0E0916100F0E0EE0FFF1F7D
:10156000EE0FFF1FED59FF4F408151816281738162
:1015700080917B0090917C00A0917D00B0917E00D5
:10158000840F951FA61FB71F803823EC920729EC04
:10159000A20721E0B20748F480937B0090937C007F
:1015A000A0937D00B0937E002AC0C0927B00D092B1
:1015B0007C00E0927D00F0927E0021C0823099F4A0
:1015C00040916100242F30E08091620090E001970B
:1015D0002817390724F44F5F4093610002C010922E
:1015E00061003EDA0EC0813061F49091600092306B
:1015F00019F48093600002C07092600014DAC09306
:10160000D300B099F0C08091D4008111F6C08091D0
:10161000CC00823020F48F5F8093CC0002C0109207
:10162000CC00D8DA8091CD009091CE00A091CF006F
:10163000B091D0000196A11DB11D8093CD00909373
:10164000CE00A093CF00B093D0004FE986E891E0A0
:10165000415080409040E1F700C000001091D1005F
:101660008091CD009091CE00A091CF00B091D0009C
:10167000112309F484C00697A105B10508F4BDC083
:101680001092CD001092CE001092CF001092D00098
:10169000113091F540917B0050917C0060917D006C
:1016A00070917E0080E090E09BD180917B009091D2
:1016B0007C00A0917D00B0917E008093D900909332
:1016C000DA00A093DB00B093DC008091770090916A
:1016D0007800A0917900B0917A0080937B0090937C
:1016E0007C00A0937D00B0937E007092D100109397
:1016F000D30002EC10E03CC0123009F07EC04091F3
:101700007B0050917C0060917D0070917E0083E0B1
:1017100090E066D180917B0090917C00A0917D004B
:10172000B0917E008093770090937800A093790029
:10173000B0937A008091D9009091DA00A091DB00FB
:10174000B091DC0080937B0090937C00A0937D009F
:10175000B0937E001092D100C093D30080927300AA
:1017600090927400A0927500B09276000DEB10E09C
:1017700026E040E368E08DED93E01BDB3EC004977C
:10178000A105B105D0F11092CD001092CE001092BB
:10179000CF001092D00040917B0050917C0060916E
:1017A0007D0070917E0080E090E01AD107EC10E09F
:1017B00026E040E068E08DED93E0FBDA2FE946E8B3
:1017C00081E0215040408040E1F700C0000000EB84
:1017D00010E026E040E068E08DED93E0EADA23D9FE
:1017E000C093D3000AC01092D4001092CD00109282
:1017F000CE001092CF001092D0008091D3008823A9
:1018000009F43FCE2091D10060917B0070917C0063
:1018100080917D0090917E00223011F43ADA09C067
:1018200020917700309178004091790050917A00B2
:10183000F7D920917700309178004091790050914C
:101840007A0060917B0070917C0080917D00909186
:101850007E002FD91092D30014CE002480FD060EF6
:10186000660F11F08695D1F7802D08950024552735
:1018700004C0080E591F880F991F009729F076950C
:101880006795B8F37105B9F7802D952F0895A1E2FA
:101890001A2EAA1BBB1BFD010DC0AA1FBB1FEE1FEA
:1018A000FF1FA217B307E407F50720F0A21BB30B35
:1018B000E40BF50B661F771F881F991F1A9469F7B1
:1018C00060957095809590959B01AC01BD01CF010D
:1018D000089568940013E894A0E0B0E0E1E7FCE02C
:1018E0001DC0EFEFE7F959016A015E23550FEE08BD
:1018F000FE2C87019B01AC019E23990F660B762F6E
:10190000CB013BD0CDB7DEB7EAE024C02F923F92A7
:101910004F925F926F927F928F929F92AF92BF92FF
:10192000CF92DF92EF92FF920F931F93CF93DF93AB
:10193000CDB7DEB7CA1BDB0B0FB6F894DEBF0FBE08
:10194000CDBF09942A88398848885F846E847D8455
:101950008C849B84AA84B984C884DF80EE80FD8057
:101960000C811B81AA81B981CE0FD11D0FB6F894CD
:10197000DEBF0FBECDBFED010895DF93CF939F92E1
:10198000A0E49A2E0024D001E001F00116950795FD
:10199000F794E794D794C794B794A79448F4106841
:1019A000A20FB31FC41FD51FE61FF71F081E191E65
:1019B000220F331F441F551F661F771F881F991F53
:1019C0009A9421F79D01AE01BF01C00111249F909F
:1019D000CF91DF910895A6E1B0E044E050E00AC065
:1019E000242F17D0252F15D000C012D0272F11C0BB
:1019F000DC01CB01FC01E199FECF06C0FFBBEEBBD1
:101A0000E09A31960DB20D9241505040B8F70895CA
:101A1000262FE199FECF1CBA9FBB8EBB2DBB0FB604
:101A2000F894E29AE19A0FBE01960895F894FFCFD8
:101A300001020464000000E8030000881300004075
:101A4000420F00A0860100880C7A0060566C00FFEF
:101A5000030303DA812934555342004C53420031C9
:101A60003030487A0020316B487A0020356B487A54
:101A70000020314D487A00202020202020202020E6
:101A80002000303030003E002356464F005354456E
:0C1A900050002342464F005341564500D1
:00000001FF
