:10000000F6C410C50FC50EC50DC50CC50BC50AC578
:1000100009C508C507C506C505C504C503C5000053
:1000200000000000000000000000000000000000D0
:10003000000040000000E38000007F8000003F805F
:1000400000000000000000000000000000000000B0
:1000500000000000000000000000000000000000A0
:10006000000000000000000000000000E0000000B0
:10007000E0000000E0000000E0000000E000000000
:10008000E0000000E0000000E0000000E0000000F0
:100090000000000000000000000000000000000060
:1000A0000000000000000000000000000000000050
:1000B000000000000000E0000000E0000000E000A0
:1000C0000000000000000000000000000000000030
:1000D0000000000000000000000000000000000020
:1000E00000000000000080000000F8000000FF8019
:1000F00000007FF8000007FF8000007FF800000785
:10010000FF8000007FF8000007F800000078000082
:10011000000000000000000000000000000000FFE0
:10012000F8000FFFFF001FFFFFC03F0007E078004F
:1001300000F0F0000078E0000038E0000038E00057
:100140000038F0000078780000F03F0007E01FFF63
:10015000FFC007FFFF0000FFF800000000000000E4
:100160000000000000000000380000001C0000003B
:100170000E0000000F0000000780000003C0FFFF1A
:10018000FFF0FFFFFFF8FFFFFFF800000000000096
:100190000000000000000000000000000000E0007F
:1001A0000E00F8000FC0FE000FE0FF0001F0EF802E
:1001B0000070E7C00078E1E00038E0F00038E07857
:1001C0000038E03E0038E01F0078E00FC1F0E003A7
:1001D000FFE0E001FFC0E0003F000000000007007A
:1001E00003001F0003C03F0003E07C0000F070002C
:1001F0000078E0000038E0038038E0038038E00356
:100200008038F003C0787007E0F07C1FFFE03FFE0D
:100210007FC01FFC1F8003F000000000000001E011
:10022000000001F8000001FE000001DF800001C7AE
:10023000E00001C1F00001C07C0001C03F0001C02E
:100240000FC001C003F0FFFFFFF8FFFFFFF8FFFF43
:10025000FFF801C0000001C0000001C0000007035A
:10026000C0001F03FF803F03FFF87C01FFF8700010
:10027000E078E0007038E0007038E0007038E000AE
:100280007038F000F0387801E0387E03E0381FFF66
:10029000C0380FFF803801FC00000000000000FFA4
:1002A000F0000FFFFF001FFFFFC03E0783E0780153
:1002B000C0F0F001C070E000E038E000E038E0009D
:1002C000E038F001E0387801C0787C07C0F03FFFEB
:1002D00083E00FFF03C003FC0300000000000000E8
:1002E00000380000003800000038F8000038FFC077
:1002F0000038FFF8003807FF0038003FC03800071B
:10030000F0380000FC3800003F3800000FB8000053
:1003100003F8000000F8000000380000000007F0BB
:1003200000001FFC1F803FFE7FE07C1EFFF0700777
:10033000E0F0F003C078E0038038E0038038E003A9
:100340008038E007C0787007E0F07C1EFFF03FFCCB
:100350007FC01FF81F8007F00000000000000600AB
:10036000FE001E07FFC07E0FFFE0781F03F0F01CA9
:1003700000F0E03C0078E0380038E0380038E03841
:100380000038701C0078781C00F03E0F01E01FFF61
:10039000FFC007FFFF80007FF800000000000000A2
:1003A000000000000000000000000000000000004D
:1003B000000000000000E0003800E0003800E0002D
:1003C00038000000000000000000000000000000F5
:1003D000000000000000000000000000000000001D
:1003E000000000000000000000000000000000000D
:1003F000F8000000000000001B0000000000007872
:10040000007800000000000000000000000040F044
:100410004040F0400000020F02020F020000C02026
:10042000F0202000000008091F09060000003048E5
:1004300030C0201800001804030C120C000060905B
:100440009060000000000E1111120C12000000005C
:100450007800000000000000000000000000000024
:10046000C030080400000000071820400000040805
:1004700030C00000000040201807000000000040CD
:10048000808040000000010503030501000000001A
:1004900000E0000000000101010F01010100000067
:1004A00000000000000040301808000000000000BC
:1004B0000000000000000101010101010000000036
:1004C00000000000000000103810000000000000D4
:1004D00000C0300C0000300C030000000000E010F1
:1004E000088810E0000007081110080700004020ED
:1004F00010F8000000000000001F0000000030089D
:10050000080888700000181412111010000010085C
:100510008888887000000C101010100F000000C0B8
:100520003008F8000000030202021F020000F84831
:100530004848488800000C101010100F0000F00808
:100540008888881000000F111010100F0000080894
:100550000888681800000018060100000000708874
:100560008888887000000F101010100F0000F0082D
:10057000080888F0000008111111100F0000004059
:10058000E0400000000000103810000000000040B3
:10059000E04000000000403018080000000000802B
:1005A00040201000000001020408100000008080BC
:1005B0008080808000000404040404040000001013
:1005C000204080000000001008040201000008081C
:1005D000884830000000001B000000000000E01010
:1005E000884848F000000708131414070000F008BA
:1005F000080808F000001F010101011F0000F88831
:100600008888F00000001F101010100F0000F00884
:100610000808083000000F101010100C0000F80837
:10062000080810E000001F10101008070000F888EC
:100630008888880800001F10101010100000F8882B
:100640008888880800001F00000000000000F008F3
:100650000808083000000F101011110F0000F8807A
:10066000808080F800001F000000001F00000808C4
:10067000F8080800000010101F1010000000000013
:10068000080808F800000C101010100F0000F88087
:1006900040A0100800001F00000106180000F8002C
:1006A0000000000000001F10101010100000F830B3
:1006B000C000C030F8001F00000300001F00F83029
:1006C000C00000F800001F0000030C1F0000F0082D
:1006D000080808F000000F101010100F0000F808B4
:1006E000080808F000001F01010101000000F008E7
:1006F000080808F000000F10101C302F0000F80848
:10070000080808F000001F010305091000007088A8
:1007100088080810000008101011110E00000808C9
:1007200008F8080808000000001F00000000F8009A
:10073000000000F800000F101010100F0000F8006B
:10074000000000F800000106181806010000F8007B
:1007500000800000F800071806010618070018605E
:1007600080806018000018060101061800007880DB
:100770000000807800000000011F00000000080851
:1007800008886818000018141310101000000000EA
:10079000FC040404000000007F40404000000C30D6
:1007A000C00000000000000000030C300000040442
:1007B00004FC000000004040407F000000002010CA
:1007C00008081020000000000000000000000000E9
:1007D0000000000000004040404040400000000891
:1007E0001830400000000000000000000000004041
:1007F0004040408000000E111111091F0000F880D8
:100800004040408000001F081010100F0000804082
:100810004040408000000F10101010080000804081
:10082000404080F800000F101010081F00008040AA
:100830004040408000000F1212121213000000F01E
:10084000080808100000011F01010100000080409D
:10085000404080C0000047888888847F0000F8807E
:100860004040408000001F000000001F00000040CA
:1008700040D8000000000000001F00000000000041
:100880004040D8000000204040403F000000F800F9
:100890000080400000001F0203040810000000F860
:1008A000000000000000000F101010000000C04009
:1008B0004080404080001F00000700001F00C080F3
:1008C0004040408000001F000000001F00008040EA
:1008D0004040408000000F101010100F0000C0803A
:1008E000404040800000FF040808080700008040E6
:1008F000404080C000000708080804FF0000C080D6
:100900004040408000001F000000000000008040C8
:1009100040404080000009121212120C000040F00A
:10092000404040000000000F101010080000C00000
:10093000000000C000000F101010081F0000C000D1
:10094000000000C000000106181806010000C000E9
:1009500000000000C0000F10080708100F004080C2
:100960000000804000001008050508100000C000CD
:10097000000000C0000047888888847F0000404055
:10098000404040C000001018141211100000000078
:1009900000F8040400000001013E40400000000097
:1009A000FC000000000000003F0000000000040404
:1009B000F8000000000040403E010100000060100F
:1009C00010204040300000000000000000AED5F0D4
:1009D000A83FD300408D142000A1C8DA12813FD96E
:1009E00022DB20A4A62EAF22003F21007F0011248D
:1009F0001FBECFE5D2E0DEBFCDBF10E0A0E6B0E085
:100A0000E4E3FFE102C005900D92A43CB107D9F7E1
:100A100020E0A4ECB0E001C01D92A43EB207E1F7D3
:100A2000E8D486CAEDCA0F931F938091600082308C
:100A300019F40FE710E002C003E810E026E048E0F8
:100A400068E08DED93E0B5D12FE58AEE90E021507E
:100A500080409040E1F700C000001F910F91089581
:100A60000F931F9380916100811103C007E810E08C
:100A70000EC0813019F40DE810E009C0823019F47D
:100A800003E910E004C0833041F409E910E026E0F6
:100A900045E568E08DED93E08CD12FE58AEE90E09E
:100AA000215080409040E1F700C000001F910F915D
:100AB00008958F929F92AF92BF92CF92DF92EF9262
:100AC000FF920F931F93CF93DF936B017C0128EE6E
:100AD00033E040E050E06BD749015A0149ED50E066
:100AE000C501B4017BD2C9EDD0E009900020E9F73F
:100AF0002197C95DD0408091CA008C1711F10FE990
:100B000010E020E040E068E08DED93E052D122E07B
:100B100040E068E08DED93E04CD18091C9008111F7
:100B20000EC030E8C31636E9D30638E9E306F1040F
:100B300010F082E001C081E08093600074DFC09318
:100B4000CA0045E050E04C1B51094295407F09ED39
:100B500010E020E060E18EE190E02BD1C501B4010E
:100B600028EE33E040E050E046D7C901DA01A701A2
:100B70009601281B390B4A0B5B0BCA01B901A8016E
:100B80002DD20AEA10E020E046E668E08DED93E021
:100B900010D1E9EDF0E001900020E9F73197CF01A5
:100BA000895D904068EFE9D64EE7480F09ED10E007
:100BB00020E068E08DED93E0FCD0DF91CF911F91B4
:100BC0000F91FF90EF90DF90CF90BF90AF909F90EC
:100BD0008F9008950F931F9308EA10E026E040E0FD
:100BE00068E08DED93E0E5D026E048E268E08DED29
:100BF00093E0DFD08091C400813029F40EEA10E048
:100C000026E040E006C0823041F40EEA10E026E023
:100C100048E268E08DED93E0CCD01F910F910895EC
:100C2000EF92FF920F931F93E0916000E230A9F4DE
:100C3000261737074807590738F4DC01CB01821B18
:100C4000930BA40BB50B0FC079018A01E61AF70AC2
:100C5000080B190BD801C70106C0DC01CB01820FBC
:100C6000931FA41FB51F8093D5009093D600A09327
:100C7000D700B093D8006091D5007091D6008091D4
:100C8000D7009091D80040E01F910F91FF90EF9016
:100C900012C2611571058105910551F06093D5006F
:100CA0007093D6008093D7009093D80041E003C2A0
:100CB0000895B99ABA9AC29AC19AC198C2980895E9
:100CC000C298C198C29AC19AB998089520E030E0BC
:100CD00090E0AC01022E01C0440F0A94EAF747FFEE
:100CE00002C0C19A01C0C198C29AC2982F5F3F4FFB
:100CF0002830310571F7C19AC29AC2980895D9DF98
:100D000088E7E4DF80E0E2CFD4DF88E7DFDF80E45C
:100D1000DDCFDCCFD5CF1F93CF93DF93F0DFCDECCA
:100D2000D9E01C2F105EFE018491D0DF21961C13A8
:100D3000FACFDF91CF911F91C3CF1F93CF93DF9352
:100D40001F92CDB7DEB7182F6983D9DF6981862F4F
:100D50008770806BBBDF812F8F70B8DF812F82950A
:100D60008F708061B3DF0F90DF91CF911F91A8CF7B
:100D7000EF92FF920F931F93CF93DF93E82EF62EFF
:100D8000042F122F60E080E0D8DFBEDFC0E0D1E0AA
:100D90008E2D9CDF8F2D9ADF802F98DF812F96DF9D
:100DA0002197B1F7DF91CF911F910F91FF90EF90B5
:100DB00087CF2F923F924F925F926F927F928F9246
:100DC0009F92AF92BF92CF92DF92EF92FF920F93DA
:100DD0001F93CF93DF9300D000D0CDB7DEB75C0177
:100DE000762E4B832C83E12CF12C862F90E09A8376
:100DF0008983F80181918F01882309F4D8C096E096
:100E000079120DC0082E000C990B66E070E0BED57B
:100E1000805C91097C01EB81E93718F5C4C0F8E0EA
:100E20007F120EC0E82E880FFF0824E0EE0CFF1C96
:100E30002A95E1F782E0F81A9B81993790F4B3C0C4
:100E4000E0E17E12A8C0E82E880FFF0896E0EE0CC5
:100E5000FF1C9A95E1F7FBE0FF1A8B81893708F4B4
:100E600045C09C819F5F9C83692F80E066DFE6E040
:100E70007E1619F0F8E07F1234C01B8245DFC12CCA
:100E8000D12CE981FA81CE16DF0659F0F601EE0D7C
:100E9000FF1DEA0DFB1D84913CDF8FEFC81AD80AB5
:100EA000F0CF38DFF8E07F1611F034DF70C06C81CE
:100EB0006F5F8B8142DF28DF812C912C670188E0F6
:100EC000C80ED11CF601E80DF91DEA0DFB1D849139
:100ED00020DF9FEF891A990AE8E08E16910491F7B6
:100EE000E4CFF0E11B827F1252C003C06C818B8182
:100EF00024DF3C8033946701F3E0CF0ED11C83E004
:100F0000682E8C81680E4601FFDE412C512CF201C7
:100F1000E80DF91DEA0DFB1D8491FBDE84E0480E0F
:100F2000511C90E44916510491F7F4DE632D8B8136
:100F300004DF3394E1E08E1A91083610E5CF6C811E
:100F40006E5F8B81FADE1701FFEF2F1A3F0ADCDE9E
:100F5000412C512C460182E0881A9108F401E40DDD
:100F6000F51DEA0DFB1D8491D4DE94E0490E511C61
:100F7000E0E44E16510491F7CDDE662D8B81DDDE67
:100F80006394F1E0CF1AD108C214D30401F78B8126
:100F9000870D8B832ECF9B81993708F062CF6C81B0
:100FA0008B81CBDEF4CF6C818B81C7DE67CF0F9056
:100FB0000F900F900F90DF91CF911F910F91FF90A5
:100FC000EF90DF90CF90BF90AF909F908F907F90E9
:100FD0006F905F904F903F902F9008958F929F92C7
:100FE000AF92BF92EF92FF921F93CF93DF93EA01EC
:100FF00010E02AE0822E912CA12CB12C7E01E10E72
:10100000F11CA5019401D3D4605DD7016C93B901A3
:10101000CA011F5F611571058105910579F7FE0110
:10102000E10FF11D1082FE0101900020E9F7EC1B99
:1010300080E05EEF5E0F952F981B891768F49E0184
:10104000280F311DF9014081DE01A90FB11D9C91CE
:1010500090834C938F5FEFCFDF91CF911F91FF90E3
:10106000EF90BF90AF909F908F9008951F93CF9374
:10107000DF931F92CDB7DEB7182F69831ADE80EC9D
:1010800025DE812F23DE6981862F20DE0F90DF9100
:10109000CF911F9115CE60EC87EBE8DF60E083E035
:1010A000E5DF60E08FE0E2DF83EC99E00197F1F7A4
:1010B00000C0000008952F923F924F925F926F926E
:1010C0007F928F929F92AF92BF92CF92DF92EF92D8
:1010D000FF920F931F93CF93DF93CDB7DEB72E9779
:1010E0000FB6F894DEBF0FBECDBF6B017C0141305F
:1010F00049F4FFE62F2EA0E83A2E12E322E22E87D3
:1011000001E108C07FE4272EE0E23E2E1AE23AE138
:101110003E8700E160E079EE84EA95E3A70196015D
:1011200046D429013A0141E04D8785E8481683E01D
:1011300058066104710440F05D85550F5D87769413
:10114000679457944794F1CF40FE05C0E1E04E1AF2
:10115000510861087108FD856F2F70E080E090E014
:10116000A701960148D4B22FA32FF42FE52FC30176
:10117000B2012B2F3A2F4F2F5E2F3DD469017A01F8
:101180002D85283001F140F42230B9F02430C1F02F
:10119000213009F51D861FC03D853032B9F028F495
:1011A0003031C9F4F0E4FD8716C04D85403489F034
:1011B000403889F440E74D870EC050E15D870BC091
:1011C00080E28D8708C0E0E3ED8705C020E52D872C
:1011D00002C030E63D87C701B6012EE537E84DE78E
:1011E00051E0E5D349015A01CA01B90122EA38E7C1
:1011F00042E85EEFFED329833A834B835C836D83A1
:101200007E838F83988769817A818B819C816C0D25
:101210007D1D8E1D9F1D68D520EF3FEF4FE759E4E0
:10122000F1D57301620154E0C51AD108E1085EEFFF
:10123000F50AA7019601E7E0220F331F441F551F4F
:10124000EA95D1F729833A834B835C832FEA33EC09
:101250004EEB5BE4B5D41CD56B017C01F7E0CC0C04
:10126000DD1CEE1CFF1CFA95D1F7C701B6012FEF6C
:101270003FEF4FE050E09BD3CA01B90135D56987F4
:101280007A878B879C87B4017695762F662777952A
:101290006795072E000C880B990B28D529853A8570
:1012A0004B855C8529D420E030E040E054E423D431
:1012B000EFD44B015C0169857A858B859C85E8D4E8
:1012C0002FEF3FEF4FE050E096D3C901DA01C81A83
:1012D000D90AEA0AFB0A60E8802FC8DE6FEF8E8524
:1012E000C5DE6FEF8E858F5FC1DED501C401882713
:1012F0009927A370BB27BD01882799278E858E5F0C
:10130000B5DE692D8E858D5FB1DE682D8E858C5F93
:10131000ADDED701C60188279927AF70BB276A2F9A
:10132000606F8E858B5FA2DE6D2D8E858A5F9EDE5F
:101330006C2D8E85895F9ADE60E0812F97DE61E0FB
:1013400081E0810F93DE32E0A32EA10E89819A8184
:10135000AB81BC8188279927A370BB276D856A2B39
:101360008A2D84DE43E0B42EB10E3A81632F8B2D9B
:101370007DDE54E0F52EF10E69818F2D77DE60E081
:1013800085E0810F73DE60E086E0810F6FDE60E054
:1013900087E0810F6BDE44E0441651046104710460
:1013A00051F46D856C608A2D61DE60E08B2D5EDE10
:1013B00060E08F2D5BDE632D81EB58DE622D802F88
:1013C0002E960FB6F894DEBF0FBECDBFDF91CF9142
:1013D0001F910F91FF90EF90DF90CF90BF90AF9053
:1013E0009F908F907F906F905F904F903F902F9045
:1013F0003DCE17BABC98BB98B898C49AC39AC09A05
:1014000080E090E06AD56093D5007093D600809319
:10141000D7009093D8008B019C01005A16482140B8
:101420003109013E1C43284C314040F460937B005D
:1014300070937C0080937D0090937E0083E090E029
:101440004CD56093D5007093D6008093D7009093CD
:10145000D800613823EC720729EC820721E092075B
:1014600040F46093770070937800809379009093B4
:101470007A0080917B0090917C00A0917D00B091DA
:101480007E0080389649A849B10518F082E0809323
:101490006000B0990CC081E08093C9008FE996E8A4
:1014A00021E0815090402040E1F700C000008FE033
:1014B00097E20197F1F700C00000EDDD2091770081
:1014C000309178004091790050917A0060917B00D2
:1014D00070917C0080917D0090917E00A1DB6091F5
:1014E0007700709178008091790090917A00D1DB3B
:1014F0008FE097E20197F1F700C000000CDC20E0DC
:1015000040E060E080E034DC0FE810E022E046E6F6
:1015100068E08DED93E04DDC8091C900813089F465
:1015200000EB10E026E040E368E08DED93E041DC65
:101530001092730010927400109275001092760051
:1015400008C005EB10E026E040E368E08DED93E095
:1015500030DC2091770030917800409179005091F3
:101560007A0060917B0070917C0080917D00909169
:101570007E009FDA8091610090E072DAD1E0C1E0F4
:1015800032E0732E40E8C42E43ECD42E49ECE42E16
:10159000FF24F39450EA852E56E8952EAA24A394AE
:1015A000B12C86B3829581708D278093D00096B33D
:1015B00093FB992790F99D279093CF00891304C03E
:1015C0008093CE008093CD002091CE00821709F445
:1015D00047C08093CE008091C400811141C0E0914A
:1015E0006100F0E0EE0FFF1FEE0FFF1FED59FF4F00
:1015F00040917B0050917C0060917D0070917E0055
:101600000081118122813381401B510B620B730BCE
:101610000091730010917400209175003091760054
:10162000041715072607370788F4403883EC580756
:1016300089EC680781E0780748F440937B00509379
:101640007C0060937D0070937E0008C000937B0057
:1016500010937C0020937D0030937E00C093CB00DC
:101660008091CD00981709F45CC09093CD008091D3
:10167000C400811133C0E0916100F0E0EE0FFF1F64
:10168000EE0FFF1FED59FF4F408151816281738141
:1016900080917B0090917C00A0917D00B0917E00B4
:1016A000840F951FA61FB71F803823EC920729ECE3
:1016B000A20721E0B20748F480937B0090937C005E
:1016C000A0937D00B0937E002AC0C0927B00D09290
:1016D0007C00E0927D00F0927E0021C0823099F47F
:1016E00040916100242F30E08091620090E00197EA
:1016F0002817390724F44F5F4093610002C010920D
:101700006100AED90EC0813061F4909160009230DA
:1017100019F48093600002C07092600084D9C09375
:10172000CB00B099F0C08091CC008111F6C08091BF
:10173000C400823020F48F5F8093C40002C01092F6
:10174000C40048DA8091C5009091C600A091C700FE
:10175000B091C8000196A11DB11D8093C500909362
:10176000C600A093C700B093C8004FE986E891E097
:10177000415080409040E1F700C000001091C90046
:101780008091C5009091C600A091C700B091C8009B
:10179000112309F484C00697A105B10508F4BDC062
:1017A0001092C5001092C6001092C7001092C80097
:1017B000113091F540917B0050917C0060917D004B
:1017C00070917E0080E090E08DD380917B009091BD
:1017D0007C00A0917D00B0917E008093D100909319
:1017E000D200A093D300B093D40080917700909161
:1017F0007800A0917900B0917A0080937B0090935B
:101800007C00A0937D00B0937E007092C90010937D
:10181000CB000AEB10E03CC0123009F07EC04091D2
:101820007B0050917C0060917D0070917E0083E090
:1018300090E058D380917B0090917C00A0917D0036
:10184000B0917E008093770090937800A093790008
:10185000B0937A008091D1009091D200A091D300F2
:10186000B091D40080937B0090937C00A0937D0086
:10187000B0937E001092C900C093CB008092730099
:1018800090927400A0927500B092760005EB10E083
:1018900026E040E368E08DED93E08BDA3EC00497EC
:1018A000A105B105D0F11092C5001092C6001092AA
:1018B000C7001092C80040917B0050917C0060915D
:1018C0007D0070917E0080E090E00CD30FEB10E083
:1018D00026E040E068E08DED93E06BDA2FE946E822
:1018E00081E0215040408040E1F700C0000008EA5C
:1018F00010E026E040E068E08DED93E05ADA93D8FE
:10190000C093CB000AC01092CC001092C500109278
:10191000C6001092C7001092C8008091CB008823A7
:1019200009F43FCE2091C90060917B0070917C004A
:1019300080917D0090917E00223011F4AAD909C0D7
:1019400020917700309178004091790050917A0091
:1019500067D92091770030917800409179005091BB
:101960007A0060917B0070917C0080917D00909165
:101970007E009FD81092CB0014CE002480FD060E6E
:10198000660F11F08695D1F7802D08950024552714
:1019900004C0080E591F880F991F009729F07695EB
:1019A0006795B8F37105B9F7802D952F0895A1E2D9
:1019B0001A2EAA1BBB1BFD010DC0AA1FBB1FEE1FC9
:1019C000FF1FA217B307E407F50720F0A21BB30B14
:1019D000E40BF50B661F771F881F991F1A9469F790
:1019E00060957095809590959B01AC01BD01CF01EC
:1019F000089568940013E894A0E0B0E0E1E0FDE011
:101A00001DC0EFEFE7F959016A015E23550FEE089B
:101A1000FE2C87019B01AC019E23990F660B762F4C
:101A2000CB013BD0CDB7DEB7EAE024C02F923F9286
:101A30004F925F926F927F928F929F92AF92BF92DE
:101A4000CF92DF92EF92FF920F931F93CF93DF938A
:101A5000CDB7DEB7CA1BDB0B0FB6F894DEBF0FBEE7
:101A6000CDBF09942A88398848885F846E847D8434
:101A70008C849B84AA84B984C884DF80EE80FD8036
:101A80000C811B81AA81B981CE0FD11D0FB6F894AC
:101A9000DEBF0FBECDBFED010895DF93CF939F92C0
:101AA000A0E49A2E0024D001E001F00116950795DC
:101AB000F794E794D794C794B794A79448F4106820
:101AC000A20FB31FC41FD51FE61FF71F081E191E44
:101AD000220F331F441F551F661F771F881F991F32
:101AE0009A9421F79D01AE01BF01C00111249F907E
:101AF000CF91DF9108955058BB27AA270ED048C137
:101B000039D130F03ED120F031F49F3F11F41EF472
:101B10002EC10EF4E095E7FB24C1E92F4AD180F3F2
:101B2000BA17620773078407950718F071F49EF5DA
:101B300062C10EF4E0950B2EBA2FA02D0B01B90156
:101B400090010C01CA01A0011124FF27591B99F033
:101B5000593F50F4503E68F11A16F040A22F232F3F
:101B6000342F4427585FF3CF469537952795A7958F
:101B7000F0405395C9F77EF41F16BA0B620B730B36
:101B8000840BBAF09150A1F0FF0FBB1F661F771FA7
:101B9000881FC2F70EC0BA0F621F731F841F48F45C
:101BA000879577956795B795F7959E3F08F0B3CFE2
:101BB0009395880F08F09927EE0F979587950895CC
:101BC0000CD0E6C0DED040F0D5D030F021F45F3F3D
:101BD00019F0C7C0511110C1CAC0EBD098F39923B6
:101BE000C9F35523B1F3951B550BBB27AA276217E1
:101BF0007307840738F09F5F5F4F220F331F441F26
:101C0000AA1FA9F333D00E2E3AF0E0E830D091505D
:101C10005040E695001CCAF729D0FE2F27D0660F4A
:101C2000771F881FBB1F261737074807AB07B0E889
:101C300009F0BB0B802DBF01FF2793585F4F2AF09F
:101C40009E3F510568F08DC0D7C05F3FECF3983ED2
:101C5000DCF3869577956795B795F7959F5FC9F7FC
:101C6000880F911D9695879597F90895E1E0660F85
:101C7000771F881FBB1F621773078407BA0720F0FE
:101C8000621B730B840BBA0BEE1F88F7E095089567
:101C900098D088F09F5790F0B92F9927B751A0F0AE
:101CA000D1F0660F771F881F991F1AF0BA95C9F7F0
:101CB00012C0B13081F09FD0B1E008959CC0672F71
:101CC000782F8827B85F39F0B93FCCF386957795A0
:101CD0006795B395D9F73EF4909580957095619589
:101CE0007F4F8F4F9F4F0895E89409C097FB3EF4B4
:101CF00090958095709561957F4F8F4F9F4F992359
:101D0000A9F0F92F96E9BB279395F69587957795D6
:101D10006795B795F111F8CFFAF4BB0F11F460FF96
:101D20001BC06F5F7F4F8F4F9F4F16C0882311F0EE
:101D300096E911C0772321F09EE8872F762F05C002
:101D4000662371F096E8862F70E060E02AF09A959D
:101D5000660F771F881FDAF7880F9695879597F992
:101D6000089597F99F6780E870E060E008959FEF1D
:101D700080EC089500240A94161617061806090622
:101D8000089500240A9412161306140605060895F1
:101D9000092E0394000C11F4882352F0BB0F40F479
:101DA000BF2B11F460FF04C06F5F7F4F8F4F9F4FB9
:101DB000089557FD9058440F551F59F05F3F71F03B
:101DC0004795880F97FB991F61F09F3F79F08795A2
:101DD0000895121613061406551FF2CF4695F1DF2B
:101DE00008C0161617061806991FF1CF86957105BB
:101DF000610508940895E894BB2766277727CB01EF
:101E000097F908950AD0C4CFB5DF28F0BADF18F0EB
:101E1000952309F0A6CFABCFEFCFCBDFA8F3992363
:101E2000D9F35523C9F3950F50E0551FAA27EE2784
:101E3000FF27BB2700240894679520F4E20FF31FC7
:101E4000B41F0A1E220F331F441FAA1F6695A9F74D
:101E5000779530F4F30FB41F0A1E121E08F4639531
:101E6000330F441FAA1F221F769599F7879520F4F8
:101E7000B40F0A1E121E631F440FAA1F221F331F16
:101E80008695A9F7862F712D602D11249F575040FC
:101E90008AF0E1F088234AF0EE0FFF1FBB1F661F98
:101EA000771F881F91505040A9F79E3F510570F051
:101EB00058CFA2CF5F3FECF3983EDCF38695779541
:101EC0006795B795F795E7959F5FC1F7FE2B880F4C
:101ED000911D9695879597F90895A6E1B0E044E0A5
:101EE00050E00AC0242F17D0252F15D000C012D0E3
:101EF000272F11C0DC01CB01FC01E199FECF06C008
:101F0000FFBBEEBBE09A31960DB20D9241505040AE
:101F1000B8F70895262FE199FECF1CBA9FBB8EBB60
:101F20002DBB0FB6F894E29AE19A0FBE0196089580
:041F3000F894FFCF53
:101F340001020464000000E803000088130000406C
:101F4400420F00A0860100880C7A0060566C005590
:101F54005342004C534200313030487A0020316BF8
:101F6400487A0020356B487A0020314D487A0020A9
:101F740020202020202020202000303030003E006F
:101F84002356464F0053544550002342464F0053B6
:041F9400415645006D
:00000001FF
