:10000000F6C410C50FC50EC50DC50CC50BC50AC578
:1000100009C508C507C506C505C504C503C5000053
:1000200000000000000000000000000000000000D0
:100030000000000000000000000000000000C700F9
:100040000000FF0000003F00000000000000000072
:1000500000000000000000000000000000000000A0
:100060000000000000000000000000000000000090
:10007000000000000000000E0000000E0000000E56
:100080000000000E0000000E0000000E0000000E38
:100090000000000E00000000000000000000000052
:1000A0000000000000000000000000000000000050
:1000B0000000000000000000000000000000070039
:1000C0000000070000000700000000000000000022
:1000D0000000000000000000000000000000000020
:1000E0000000000000000000000000000000000010
:1000F00000000600000007C0000003F80000003FF9
:1001000080000007F0000000FE0000000FE000008B
:1001100001F00000003000000000000000000000BE
:100120000000001FFC00007FFF0001FFFFC003E094
:1001300003E0038000E007000070060000300600C6
:1001400000300600003007000070038000E003E08C
:1001500003E001FFFFC0007FFF00001FFC00000064
:10016000000000000000000000000000000000008F
:1001700003000000030000000300000003800000F3
:1001800001C007FFFFE007FFFFF007FFFFF00000DF
:100190000000000000000000000000000000060059
:1001A00000000780060007C0078007E007C007F0CF
:1001B00001E006780060063C0030063C0030061E78
:1001C0000030060F0030060780300603C0700601BD
:1001D000F0E00600FFE006007FC006001F00000000
:1001E00000000060030001E003C003E003E00380BF
:1001F00000E007000070060000300600C030060076
:10020000C0300600C0300600E0700301F0E0038358
:10021000BFE001FFBFC000FF0F00007C00000038FE
:100220000000003C0000003F00000033800000316F
:10023000E0000030700000303C0000300E00003064
:100240000780003001C007FFFFF007FFFFF007FF46
:10025000FFF000300000003000000030000000001F
:1002600000000060000001E0FC0003E0FFF00380FC
:10027000FFF0070063F00600303006003030060063
:10028000303006003030070030300300703003C1DA
:10029000E03001FFC03000FF8030003F0000000070
:1002A0000000001FF800007FFF0001FFFFC003E017
:1002B000C7C0038060E007006070060030300600B1
:1002C000303006003030060030300700707003C157
:1002D000E0E001FFC3E000FF83C0003F0300000037
:1002E000000000000030000000300000003004007A
:1002F00000300780003007E0003003F80030007F56
:100300000030001FC0300007F8300000FE30000051
:100310003FB000000FF0000001F00000007000008E
:1003200000000078000001FE0F8003FF1FC003875C
:100330003FE00703F8600601E0300600E030060009
:10034000C0300600E0300601E0300703F8600387A4
:100350003FE003FF1FC001FE0F8000780000000097
:10036000000000607E0001E0FF8003E1FFC0038326
:10037000C1E00707007006060030060600300606DA
:1003800000300606003007030070038300E001F12F
:1003900083E001FFFFC0007FFF00000FFC000000B2
:1003A000000000000000000000000000000000004D
:1003B0000000000000000000000000000000070036
:1003C0001C0007001C0007001C00000000000000CB
:1003D000000000000000000000000000000000001D
:1003E000000000000000000000000000000000000D
:1003F00000F8000000000000001B000000000000EA
:1004000078007800000000000000000000000040BC
:10041000F04040F0400000020F02020F020000C056
:1004200020F0202000000008091F0906000000300D
:100430004830C0201800001804030C120C000060A3
:10044000909060000000000E1111120C12000000CC
:100450000078000000000000000000000000000024
:1004600000C030080400000000071820400000040D
:100470000830C00000000040201807000000000005
:1004800040808040000000010503030501000000DA
:100490000000E0000000000101010F010101000067
:1004A00000000000000000403018080000000000BC
:1004B0000000000000000001010101010100000036
:1004C00000000000000000001038100000000000D4
:1004D0000000C0300C0000300C030000000000E001
:1004E00010088810E00000070811100807000040FD
:1004F0002010F8000000000000001F000000003085
:10050000080808887000001814121110100000105C
:10051000088888887000000C101010100F00000070
:10052000C03008F8000000030202021F020000F8B9
:10053000484848488800000C101010100F0000F0C8
:10054000088888881000000F111010100F00000894
:1005500008088868180000001806010000000070F4
:10056000888888887000000F101010100F0000F0AD
:1005700008080888F0000008111111100F00000091
:1005800040E04000000000001038100000000000B3
:1005900040E040000000004030180800000000006B
:1005A00080402010000000010204081000000080BC
:1005B00080808080800000040404040404000000A3
:1005C0001020408000000000100804020100000814
:1005D00008884830000000001B000000000000E018
:1005E00010884848F000000708131414070000F0B2
:1005F00008080808F000001F010101011F0000F8B1
:10060000888888F00000001F101010100F0000F004
:10061000080808083000000F101010100C0000F837
:1006200008080810E000001F10101008070000F86C
:10063000888888880800001F10101010100000F82B
:10064000888888880800001F00000000000000F073
:10065000080808083000000F101011110F0000F8F2
:1006600080808080F800001F000000001F0000084C
:1006700008F8080800000010101F1010000000000B
:1006800000080808F800000C101010100F0000F807
:100690008040A0100800001F00000106180000F8AC
:1006A000000000000000001F10101010100000F8E3
:1006B00030C000C030F8001F00000300001F00F829
:1006C00030C00000F800001F0000030C1F0000F005
:1006D00008080808F000000F101010100F0000F8B4
:1006E00008080808F000001F01010101000000F0E7
:1006F00008080808F000000F10101C302F0000F848
:1007000008080808F000001F010305091000007028
:100710008888080810000008101011110E00000849
:100720000808F8080808000000001F00000000F892
:1007300000000000F800000F101010100F0000F86B
:1007400000000000F800000106181806010000F87B
:100750000000800000F800071806010618070018BE
:1007600060808060180000180601010618000078FB
:10077000800000807800000000011F0000000008D9
:1007800008088868180000181413101010000000E2
:1007900000FC040404000000007F40404000000C06
:1007A00030C00000000000000000030C3000000416
:1007B0000404FC000000004040407F0000000020D6
:1007C00010080810200000000000000000000000D9
:1007D0000000000000000040404040404000000099
:1007E0000818304000000000000000000000000079
:1007F000404040408000000E111111091F0000F818
:10080000804040408000001F081010100F00008042
:10081000404040408000000F101010100800008081
:1008200040404080F800000F101010081F000080AA
:10083000404040408000000F1212121213000000CE
:10084000F0080808100000011F01010100000080ED
:1008500040404080C0000047888888847F0000F8BE
:10086000804040408000001F000000001F0000008A
:100870004040D8000000000000001F000000000001
:10088000004040D8000000204040403F000000F8F9
:10089000000080400000001F020304081000000058
:1008A000F8000000000000000F101010000000C051
:1008B000404080404080001F00000700001F00C033
:1008C000804040408000001F000000001F000080AA
:1008D000404040408000000F101010100F0000C07A
:1008E00080404040800000FF0408080807000080A6
:1008F00040404080C000000708080804FF0000C016
:10090000804040408000001F000000000000008088
:100910004040404080000009121212120C000040BA
:10092000F0404040000000000F101010080000C010
:1009300000000000C000000F101010081F0000C0D1
:1009400000000000C000000106181806010000C0E9
:100950000000000000C0000F10080708100F004042
:10096000800000804000001008050508100000C04D
:1009700000000000C0000047888888847F00004095
:1009800040404040C0000010181412111000F00C3C
:1009900002F10804E010030C102304080102000017
:1009A00000FC000000000000003F00000000F8080C
:1009B00008F8040201FF0F08080F1020407F0060B4
:1009C0001010204040300000000000000000AED5B4
:1009D000F0A83FD300408D142000A1C8DA12813F57
:1009E000D922DB20A4A62EAF22003F21007F1124B4
:1009F0001FBECFE5D2E0DEBFCDBF10E0A0E6B0E085
:100A0000E4EDFCE102C005900D92A43DB107D9F7D9
:100A100020E0A4EDB0E001C01D92AD3FB207E1F7C8
:100A2000F2D456C9EDCA0F931F93809160008230B3
:100A300019F407E810E002C00BE810E026E048E0F7
:100A400068E08EED93E04CD22FE58AEE90E02150E5
:100A500080409040E1F700C000001F910F91089581
:100A60000F931F9380916100811103C00FE810E084
:100A70000EC0813019F405E910E009C0823019F484
:100A80000BE910E004C0833041F401EA10E024E0F7
:100A900048E568E08EED93E023D22FE58AEE90E002
:100AA000215080409040E1F700C000001F910F915D
:100AB00008954F925F926F927F928F929F92AF9222
:100AC000BF92CF92DF92EF92FF920F931F93CF933B
:100AD000DF934B015C0128EE33E040E050E021D889
:100AE00029013A01C090D500D090D600E090D700FF
:100AF000F090D80042EF50E0C301B20106D3C2EF3C
:100B0000D0E009900020E9F72197C25FD0408091A2
:100B1000E1008C1749F181111092DA0007EA10E028
:100B200020E040E168E08EED93E0DAD122E040E1A0
:100B300068E08EED93E0D4D18091E000811112C085
:100B40008091DA0081110DC030E8831636E99306F2
:100B500038E9A306B10410F082E001C081E080937F
:100B6000600061DFC093E10046E050E04C1B51099A
:100B70004295407F02EF10E020E060E18EE190E0DE
:100B8000AFD1C301B20128EE33E040E050E0EDD731
:100B9000C901DA01A5019401281B390B4A0B5B0B33
:100BA000CA01B901A801B1D202EB10E020E048E689
:100BB00068E08EED93E094D1E2EFF0E00190002048
:100BC000E9F73197CF01825F904068EF90D740E816
:100BD000480F02EF10E020E068E08EED93E080D156
:100BE0008091E00081113CC002EB10E026E040E67D
:100BF00068E08EED93E074D1B601D7FE04C066279D
:100C000077276C197D09072E000C880B990B42EF92
:100C100050E07BD2E2EFF0E001900020E9F731975D
:100C2000E25FF0404FE050E04E1B5109440F440F8B
:100C3000440F02EF10E026E068E08EED93E050D123
:100C40008091D5009091D600A091D700B091D800A6
:100C5000B7FD03C006EB10E005C008EB10E002C0D2
:100C60000DEA10E026E048E568E08EED93E038D12B
:100C7000DF91CF911F910F91FF90EF90DF90CF9078
:100C8000BF90AF909F908F907F906F905F904F90AC
:100C900008950F931F9300EB10E026E040E068E01A
:100CA0008EED93E01DD126E048E268E08EED93E002
:100CB00017D18091D900813099F48091DB008111A6
:100CC00005C00AEB10E026E040E006C0813041F4A8
:100CD0000AEB10E026E048E268E08EED93E000D1F8
:100CE0001F910F910895CF92DF92EF92FF920F9391
:100CF0001F936093ED007093EE008093EF0090934C
:100D0000F000C090D500D090D600E090D700F090D1
:100D1000D800C114D104E104F10491F0E091E200A3
:100D2000E1110EC0DC01CB018C0D9D1DAE1DBF1D60
:100D30008093ED009093EE00A093EF00B093F0004D
:100D4000609160008091ED009091EE00A091EF0025
:100D5000B091F000623099F4281739074A075B0711
:100D600028F4821B930BA40BB50B0DC079018A01EB
:100D7000E81AF90A0A0B1B0BD801C70104C0820F3D
:100D8000931FA41FB51F8093ED009093EE00A093D6
:100D9000EF00B093F0006091ED007091EE00809153
:100DA000EF009091F00040E01F910F91FF90EF90C5
:100DB000DF90CF905DC2611571058105910551F0FD
:100DC0006093ED007093EE008093EF009093F0003D
:100DD00041E04EC20895369A349BFECF85B1089506
:100DE000B99ABA9AC29AC19AC198C2980895C298FB
:100DF000C198C29AC19AB998089520E030E090E075
:100E0000AC01022E01C0440F0A94EAF747FF02C06A
:100E1000C19A01C0C198C29AC2982F5F3F4F283033
:100E2000310571F7C19AC29AC2980895D9DF88E74F
:100E3000E4DF80E0E2CFD4DF88E7DFDF80E4DDCFEE
:100E4000DCCFD5CF1F93CF93DF93F0DFCEECD9E08B
:100E50001C2F105EFE018491D0DF21961C13FACF67
:100E6000DF91CF911F91C3CF1F93CF93DF931F9239
:100E7000CDB7DEB7182F6983D9DF6981862F8770D8
:100E8000806BBBDF812F8F70B8DF812F82958F70D1
:100E90008061B3DF0F90DF91CF911F91A8CFEF92C8
:100EA000FF920F931F93CF93DF93E82EF62E042F1C
:100EB000122F60E080E0D8DFBEDFC0E0D1E08E2DF1
:100EC0009CDF8F2D9ADF802F98DF812F96DF21976F
:100ED000B1F7DF91CF911F910F91FF90EF9087CFE6
:100EE0002F923F924F925F926F927F928F929F923A
:100EF000AF92BF92CF92DF92EF92FF920F931F9328
:100F0000CF93DF9300D000D0CDB7DEB75C01762E53
:100F10004B832C83E12CF12C862F90E09A838983DC
:100F2000F80181918F01882309F4D8C096E07912E5
:100F30000DC0082E000C990B66E070E0E1D5805CD6
:100F400091097C01EB81E93718F5C4C0F8E07F1204
:100F50000EC0E82E880FFF0824E0EE0CFF1C2A9537
:100F6000E1F782E0F81A9B81993790F4B3C0E0E191
:100F70007E12A8C0E82E880FFF0896E0EE0CFF1C3A
:100F80009A95E1F7FBE0FF1A8B81893708F445C099
:100F90009C819F5F9C83692F80E066DFE6E07E1680
:100FA00019F0F8E07F1234C01B8245DFC12CD12C30
:100FB000E981FA81CE16DF0659F0F601EE0DFF1D2C
:100FC000EA0DFB1D84913CDF8FEFC81AD80AF0CFE1
:100FD00038DFF8E07F1611F034DF70C06C816F5F8E
:100FE0008B8142DF28DF812C912C670188E0C80EBD
:100FF000D11CF601E80DF91DEA0DFB1D849120DFDF
:101000009FEF891A990AE8E08E16910491F7E4CFD0
:10101000F0E11B827F1252C003C06C818B8124DF00
:101020003C8033946701F3E0CF0ED11C83E0682E3F
:101030008C81680E4601FFDE412C512CF201E80D37
:10104000F91DEA0DFB1D8491FBDE84E0480E511C66
:1010500090E44916510491F7F4DE632D8B8104DF8F
:101060003394E1E08E1A91083610E5CF6C816E5F03
:101070008B81FADE1701FFEF2F1A3F0ADCDE412CCD
:10108000512C460182E0881A9108F401E40DF51D07
:10109000EA0DFB1D8491D4DE94E0490E511CE0E47E
:1010A0004E16510491F7CDDE662D8B81DDDE639403
:1010B000F1E0CF1AD108C214D30401F78B81870D58
:1010C0008B832ECF9B81993708F062CF6C818B8107
:1010D000CBDEF4CF6C818B81C7DE67CF0F900F9092
:1010E0000F900F90DF91CF911F910F91FF90EF9094
:1010F000DF90CF90BF90AF909F908F907F906F9038
:101100005F904F903F902F9008958F929F92AF9253
:10111000BF92EF92FF921F93CF93DF93EA0110E00B
:101120002AE0822E912CA12CB12C7E01E10EF11C23
:10113000A5019401F6D4605DD7016C93B901CA0191
:101140001F5F611571058105910579F7FE01E10FBA
:10115000F11D1082FE0101900020E9F7EC1B80E0F8
:101160005EEF5E0F952F981B891768F49E01280F7C
:10117000311DF9014081DE01A90FB11D9C919083C1
:101180004C938F5FEFCFDF91CF911F91FF90EF9046
:10119000BF90AF909F908F9008951F93CF93DF9350
:1011A0001F92CDB7DEB7182F69831ADE80EC25DEDB
:1011B000812F23DE6981862F20DE0F90DF91CF9172
:1011C0001F9115CEEF92FF921F93CF93DF9300D024
:1011D000CDB7DEB7F82E162F49837A8301DE80EC77
:1011E0000CDE8F2D0ADEE12E7A81F72E4981140F55
:1011F0001E1529F0F70181917F01FFDDF9CF0F90D6
:101200000F90DF91CF911F91FF90EF90F0CDCF9392
:10121000DF93CDB7DEB728970FB6F894DEBF0FBEC9
:10122000CDBF60E085E9B9DF60917F0083E0B5DF85
:1012300062ED87EBB2DF198281E08A831B828FE047
:101240008C8380E88D831E821F82188648E0BE0151
:101250006F5F7F4F8AE1B6DF60E281EB9EDF289609
:101260000FB6F894DEBF0FBECDBFDF91CF910895CA
:101270004F925F926F927F928F929F92AF92BF92A6
:10128000CF92DF92EF92FF921F93CF93DF93CDB770
:10129000DEB728970FB6F894DEBF0FBECDBF6B0147
:1012A0007C01142FDC01CB018052914AA740B10987
:1012B00081329449A747B64050F081E090E001C0E8
:1012C000880F4A95EAF790917F00892B80C0609142
:1012D0008300709184008091850090918600A70121
:1012E00096011FD44601570188249924E0EFAE22CD
:1012F00089288A288B2849F0969587957795679550
:10130000F694E794D794C794EDCFE7E0660F771F84
:10131000881F991FEA95D1F749015A01F7E0880C17
:10132000991CAA1CBB1CFA95D1F722E0921AA108BD
:10133000B108A7019601F5D324013501420E531ED1
:10134000641E751E8090F100912CA12CB12CA4E19B
:10135000880C991CAA1CBB1CAA95D1F78428952837
:10136000A628B728D982CA82AB829C828D82CC24DF
:10137000DD24EFE0EE22FF24B4E0CC0CDD1CEE1CFB
:10138000FF1CBA95D1F7C62AD72AE82AF92AEE8295
:101390007F836887812F880F880F880F48E0BE0100
:1013A0006F5F7F4F865D0EDFE12FF0E0E058FF4F6B
:1013B00060816C6080E1810FF0DE81E090E001C02F
:1013C000880F1A95EAF7809590917F008923809382
:1013D0007F0060917F0083E0E0DE28960FB6F894EE
:1013E000DEBF0FBECDBFDF91CF911F91FF90EF9079
:1013F000DF90CF90BF90AF909F908F907F906F9035
:101400005F904F90089517BA88B3816188BBC398E5
:1014100083E287B98CE886B913B8A39A80E090E09C
:101420002CD46093ED007093EE008093EF009093C6
:10143000F0006B017C0120EAC21A26E8D20A21E002
:10144000E20AF10831EEC3163CE3D30638ECE306BA
:1014500031E0F30640F460937B0070937C0080934E
:101460007D0090937E0083E090E007D46093ED00D0
:101470007093EE008093EF009093F000613823ECBE
:10148000720729EC820721E0920740F4609377000D
:10149000709378008093790090937A0080917B001C
:1014A00090917C00A0917D00B0917E00803896499B
:1014B000A849B10518F082E08093600086E090E0D2
:1014C000D4D38093DA009FEF980F923028F4809362
:1014D000600081E08093DA007EDC8093D4008B3062
:1014E00060F481E08093E0008FE996E821E081508C
:1014F00090402040E1F700C000008FE097E20197A4
:10150000F1F700C0000083DE209177003091780071
:101510004091790050917A0060917B0070917C003D
:1015200080917D0090917E00DEDB6091770070916C
:1015300078008091790090917A003DDC8FE097E20D
:101540000197F1F700C000007DDC20E040E060E0A2
:1015500080E0A5DC07E910E022E048E668E08EEDD7
:1015600093E0BEDC0CEB10E024E040E368E08EED9D
:1015700093E0B6DC01EC10E020E040E068E08EEDA6
:1015800093E0AEDC8091E000813089F403EC10E060
:1015900026E040E368E08EED93E0A2DC1092730059
:1015A00010927400109275001092760008C008EC3A
:1015B00010E026E040E368E08EED93E091DC2091BE
:1015C0007700309178004091790050917A006091D5
:1015D0007B0070917C0080917D0090917E0069DAA3
:1015E0008091610090E03CDA77247394C1E0D2E00E
:1015F00020E8C22E23ECD22E29ECE22EFF24F39415
:1016000030EA832E36E8932EAA24A394B12CE3DB90
:101610008093D40086B38295817087258093E800FB
:1016200096B3917097259093E700891304C0809337
:10163000E6008093E5009091E600891709F478C0F0
:101640008093E6008091D900811140C0E091610053
:10165000F0E0EE0FFF1FEE0FFF1FED59FF4F8091DF
:101660007B0090917C00A0917D00B0917E00408134
:10167000518162817381841B950BA60BB70B40913E
:101680007300509174006091750070917600481756
:1016900059076A077B0788F4803823EC920729EC06
:1016A000A20721E0B20748F480937B0090937C006E
:1016B000A0937D00B0937E0019C040937B005093AF
:1016C0007C0060937D0070937E0010C0813081F5B6
:1016D0002091DB0021110DC090916000923019F42F
:1016E0008093600002C0D09360009DD9C093E30056
:1016F0001FC02130E9F48091D5009091D600A091CF
:10170000D700B091D800893A3DEF93073FEFA30788
:10171000B30774F084569109A109B1098093D500EB
:101720009093D600A093D700B093D8002093E30005
:101730008091E7009091E500891709F46AC08093D1
:10174000E5008091D900811133C0E0916100F0E0A3
:10175000EE0FFF1FEE0FFF1FED59FF4F408151812C
:101760006281738180917B0090917C00A0917D00CB
:10177000B0917E00840F951FA61FB71F803823EC01
:10178000920729ECA20721E0B20748F480937B007E
:1017900090937C00A0937D00B0937E0019C0C0920E
:1017A0007B00D0927C00E0927D00F0927E0010C021
:1017B000813079F52091DB0021110DC090916000FE
:1017C000923019F48093600002C0D09360002BD94E
:1017D000C093E3001EC02130E1F48091D5009091C8
:1017E000D600A091D700B091D800883532E0930799
:1017F000A105B10574F48C599F4FAF4FBF4F809333
:10180000D5009093D600A093D700B093D800209332
:10181000E3008091D4008B3008F0FCC08091DC00A4
:101820009091DD00A091DE00B091DF00892B8A2B22
:101830008B2BA9F58091D900811113C040916100D3
:10184000242F30E08091620090E00197281739073B
:1018500024F44F5F4093610002C01092610000D9F0
:101860001EC08130E1F49091DB00911103C08093A0
:10187000DB0014C01092DB001092D90040917B0075
:1018800050917C0060917D0070917E0080E090E03E
:1018900007D26091600086E090E0F4D1FAD980919F
:1018A000DC009091DD00A091DE00B091DF00019698
:1018B000A11DB11D8093DC009093DD00A093DE009C
:1018C000B093DF0087EA91E60197F1F700C00000CE
:1018D0001091E0008091DC009091DD00A091DE008D
:1018E000B091DF00112309F48BC04597A105B10524
:1018F00008F498C01092DC001092DD001092DE0017
:101900001092DF001130C1F540917B0050917C00B6
:1019100060917D0070917E0080E090E0C1D1809167
:101920007B0090917C00A0917D00B0917E0080931F
:10193000E9009093EA00A093EB00B093EC00809153
:10194000770090917800A0917900B0917A0080930F
:101950007B0090937C00A0937D00B0937E00D09399
:10196000E0001093E3000DEC10E026E040E368E0B7
:101970008EED93E0B5DA56C0123009F053C04091B5
:101980007B0050917C0060917D0070917E0083E02F
:1019900090E086D180917B0090917C00A0917D00A9
:1019A000B0917E008093770090937800A0937900A7
:1019B000B0937A008091E9009091EA00A091EB0049
:1019C000B091EC0080937B0090937C00A0937D000D
:1019D000B0937E001092E000C093E3008092730009
:1019E00090927400A0927500B092760008EC10E01E
:1019F00026E040E368E08EED93E072DA14D812C07E
:101A00004597A105B10570F01092DB00C093D90095
:101A100040D908C01092DC001092DD001092DE0068
:101A20001092DF008091D4008C536090E2008F31DF
:101A3000B8F461102CC0C093E20000EB10E020E08D
:101A400040E068E08EED93E04BDA02ED10E022E03A
:101A500040E068E08EED93E043DAC093E30017C006
:101A600091E0691214C01092E20001EC10E020E055
:101A700040E068E08EED93E033DA00EB10E022E026
:101A800040E068E08EED93E02BDA6092E300809115
:101A9000E300882309F4BBCD2091E00060917B0036
:101AA00070917C0080917D0090917E00223011F435
:101AB00082D909C020917700309178004091790057
:101AC00050917A0010D920917700309178004091A0
:101AD000790050917A0060917B0070917C00809138
:101AE0007D0090917E00E5D71092E30090CD002418
:101AF00080FD060E660F11F08695D1F7802D0895B2
:101B00000024552704C0080E591F880F991F0097FD
:101B100029F076956795B8F37105B9F7802D952F63
:101B20000895A1E21A2EAA1BBB1BFD010DC0AA1F1E
:101B3000BB1FEE1FFF1FA217B307E407F50720F036
:101B4000A21BB30BE40BF50B661F771F881F991FB1
:101B50001A9469F760957095809590959B01AC01FA
:101B6000BD01CF01089568940013E894A0E0B0E0AF
:101B7000EBEBFDE01DC0EFEFE7F959016A015E23D1
:101B8000550FEE08FE2C87019B01AC019E23990F97
:101B9000660B762FCB013BD0CDB7DEB7EAE024C091
:101BA0002F923F924F925F926F927F928F929F926D
:101BB000AF92BF92CF92DF92EF92FF920F931F935B
:101BC000CF93DF93CDB7DEB7CA1BDB0B0FB6F8940C
:101BD000DEBF0FBECDBF09942A88398848885F844C
:101BE0006E847D848C849B84AA84B984C884DF80BD
:101BF000EE80FD800C811B81AA81B981CE0FD11DA1
:101C00000FB6F894DEBF0FBECDBFED010895DF9390
:101C1000CF939F92A0E49A2E0024D001E001F0011E
:101C200016950795F794E794D794C794B794A7941B
:101C300048F41068A20FB31FC41FD51FE61FF71F7B
:101C4000081E191E220F331F441F551F661F771FC2
:101C5000881F991F9A9421F79D01AE01BF01C00111
:101C600011249F90CF91DF910895E199FECF9FBB02
:101C70008EBBE09A99278DB30895A6E1B0E044E0C9
:101C800050E018C0262FE199FECF1CBA9FBB8EBB37
:101C90002DBB0FB6F894E29AE19A0FBE0196089513
:101CA000242FF1DF252FEFDF00C0ECDF272FEBCF54
:101CB000DC01CB01FC01E199FECF06C0FFBBEEBB0E
:101CC000E09A31960DB20D9241505040B8F7089508
:041CD000F894FFCFB6
:101CD40001020464000000E80300008813000040CF
:101CE400420F00A0860100880C7A0060566C00FF49
:101CF40003030340262934555342004C5342003118
:101D04003030487A0020316B487A0020356B487AAD
:101D14000020314D487A002020202020202020203F
:101D24002000303030002B002D003E00535445502D
:101D3400007D002356464F0052495420002342465A
:041D44004F007B00D1
:00000001FF
